{
  "_format": "hh-sol-artifact-1",
  "contractName": "Resolver",
  "sourceName": "contracts/rentNFT/Resolver.sol",
  "abi": [
    {
      "inputs": [
        {
          "internalType": "address",
          "name": "_admin",
          "type": "address"
        }
      ],
      "stateMutability": "nonpayable",
      "type": "constructor"
    },
    {
      "inputs": [
        {
          "internalType": "string",
          "name": "_name",
          "type": "string"
        }
      ],
      "name": "getPaymentToken",
      "outputs": [
        {
          "internalType": "address",
          "name": "",
          "type": "address"
        }
      ],
      "stateMutability": "view",
      "type": "function"
    },
    {
      "inputs": [
        {
          "internalType": "string",
          "name": "_name",
          "type": "string"
        },
        {
          "internalType": "address",
          "name": "_v",
          "type": "address"
        }
      ],
      "name": "setPaymentToken",
      "outputs": [],
      "stateMutability": "nonpayable",
      "type": "function"
    }
  ],
  "bytecode": "0x608060405234801561001057600080fd5b5060405161080a38038061080a833981810160405281019061003291906100db565b806000806101000a81548173ffffffffffffffffffffffffffffffffffffffff021916908373ffffffffffffffffffffffffffffffffffffffff16021790555050610108565b600080fd5b600073ffffffffffffffffffffffffffffffffffffffff82169050919050565b60006100a88261007d565b9050919050565b6100b88161009d565b81146100c357600080fd5b50565b6000815190506100d5816100af565b92915050565b6000602082840312156100f1576100f0610078565b5b60006100ff848285016100c6565b91505092915050565b6106f3806101176000396000f3fe608060405234801561001057600080fd5b50600436106100365760003560e01c8063135e4acd1461003b57806348fb983d1461006b575b600080fd5b61005560048036038101906100509190610416565b610087565b60405161006291906104a0565b60405180910390f35b610085600480360381019061008091906104e7565b6100ea565b005b6000600160008360405160200161009e91906105bd565b60405160208183030381529060405280519060200120815260200190815260200160002060009054906101000a900473ffffffffffffffffffffffffffffffffffffffff169050919050565b600073ffffffffffffffffffffffffffffffffffffffff16600160008460405160200161011791906105bd565b60405160208183030381529060405280519060200120815260200190815260200160002060009054906101000a900473ffffffffffffffffffffffffffffffffffffffff1673ffffffffffffffffffffffffffffffffffffffff16146101b2576040517f08c379a00000000000000000000000000000000000000000000000000000000081526004016101a990610631565b60405180910390fd5b60008054906101000a900473ffffffffffffffffffffffffffffffffffffffff1673ffffffffffffffffffffffffffffffffffffffff163373ffffffffffffffffffffffffffffffffffffffff1614610240576040517f08c379a00000000000000000000000000000000000000000000000000000000081526004016102379061069d565b60405180910390fd5b80600160008460405160200161025691906105bd565b60405160208183030381529060405280519060200120815260200190815260200160002060006101000a81548173ffffffffffffffffffffffffffffffffffffffff021916908373ffffffffffffffffffffffffffffffffffffffff1602179055505050565b6000604051905090565b600080fd5b600080fd5b600080fd5b600080fd5b6000601f19601f8301169050919050565b7f4e487b7100000000000000000000000000000000000000000000000000000000600052604160045260246000fd5b610323826102da565b810181811067ffffffffffffffff82111715610342576103416102eb565b5b80604052505050565b60006103556102bc565b9050610361828261031a565b919050565b600067ffffffffffffffff821115610381576103806102eb565b5b61038a826102da565b9050602081019050919050565b82818337600083830152505050565b60006103b96103b484610366565b61034b565b9050828152602081018484840111156103d5576103d46102d5565b5b6103e0848285610397565b509392505050565b600082601f8301126103fd576103fc6102d0565b5b813561040d8482602086016103a6565b91505092915050565b60006020828403121561042c5761042b6102c6565b5b600082013567ffffffffffffffff81111561044a576104496102cb565b5b610456848285016103e8565b91505092915050565b600073ffffffffffffffffffffffffffffffffffffffff82169050919050565b600061048a8261045f565b9050919050565b61049a8161047f565b82525050565b60006020820190506104b56000830184610491565b92915050565b6104c48161047f565b81146104cf57600080fd5b50565b6000813590506104e1816104bb565b92915050565b600080604083850312156104fe576104fd6102c6565b5b600083013567ffffffffffffffff81111561051c5761051b6102cb565b5b610528858286016103e8565b9250506020610539858286016104d2565b9150509250929050565b600081519050919050565b600081905092915050565b60005b8381101561057757808201518184015260208101905061055c565b83811115610586576000848401525b50505050565b600061059782610543565b6105a1818561054e565b93506105b1818560208601610559565b80840191505092915050565b60006105c9828461058c565b915081905092915050565b600082825260208201905092915050565b7f52654e46543a3a63616e6e6f7420726573657420746865206164647265737300600082015250565b600061061b601f836105d4565b9150610626826105e5565b602082019050919050565b6000602082019050818103600083015261064a8161060e565b9050919050565b7f52654e46543a3a6f6e6c792061646d696e000000000000000000000000000000600082015250565b60006106876011836105d4565b915061069282610651565b602082019050919050565b600060208201905081810360008301526106b68161067a565b905091905056fea26469706673582212205ca0b2267087098ea0fc7e95aea06579e6c69e5638d66d165a78ab8a011628d364736f6c63430008090033",
  "linkReferences": {},
  "deployedLinkReferences": {}
}