{
  "_format": "hh-sol-artifact-1",
  "contractName": "FishdomNFT",
  "sourceName": "contracts/FishdomNFT.sol",
  "abi": [
    {
      "anonymous": false,
      "inputs": [
        {
          "indexed": true,
          "internalType": "address",
          "name": "owner",
          "type": "address"
        },
        {
          "indexed": true,
          "internalType": "address",
          "name": "approved",
          "type": "address"
        },
        {
          "indexed": true,
          "internalType": "uint256",
          "name": "tokenId",
          "type": "uint256"
        }
      ],
      "name": "Approval",
      "type": "event"
    },
    {
      "anonymous": false,
      "inputs": [
        {
          "indexed": true,
          "internalType": "address",
          "name": "owner",
          "type": "address"
        },
        {
          "indexed": true,
          "internalType": "address",
          "name": "operator",
          "type": "address"
        },
        {
          "indexed": false,
          "internalType": "bool",
          "name": "approved",
          "type": "bool"
        }
      ],
      "name": "ApprovalForAll",
      "type": "event"
    },
    {
      "anonymous": false,
      "inputs": [
        {
          "indexed": false,
          "internalType": "uint8",
          "name": "version",
          "type": "uint8"
        }
      ],
      "name": "Initialized",
      "type": "event"
    },
    {
      "anonymous": false,
      "inputs": [
        {
          "indexed": true,
          "internalType": "address",
          "name": "from",
          "type": "address"
        },
        {
          "indexed": true,
          "internalType": "address",
          "name": "to",
          "type": "address"
        },
        {
          "indexed": true,
          "internalType": "uint256",
          "name": "tokenId",
          "type": "uint256"
        }
      ],
      "name": "Transfer",
      "type": "event"
    },
    {
      "inputs": [],
      "name": "_baseUri",
      "outputs": [
        {
          "internalType": "string",
          "name": "",
          "type": "string"
        }
      ],
      "stateMutability": "view",
      "type": "function"
    },
    {
      "inputs": [
        {
          "internalType": "address",
          "name": "to",
          "type": "address"
        },
        {
          "internalType": "uint256",
          "name": "tokenId",
          "type": "uint256"
        }
      ],
      "name": "approve",
      "outputs": [],
      "stateMutability": "nonpayable",
      "type": "function"
    },
    {
      "inputs": [
        {
          "internalType": "address",
          "name": "owner",
          "type": "address"
        }
      ],
      "name": "balanceOf",
      "outputs": [
        {
          "internalType": "uint256",
          "name": "",
          "type": "uint256"
        }
      ],
      "stateMutability": "view",
      "type": "function"
    },
    {
      "inputs": [
        {
          "internalType": "uint256",
          "name": "tokenId",
          "type": "uint256"
        }
      ],
      "name": "burn",
      "outputs": [],
      "stateMutability": "nonpayable",
      "type": "function"
    },
    {
      "inputs": [
        {
          "internalType": "uint256",
          "name": "tokenId",
          "type": "uint256"
        }
      ],
      "name": "getApproved",
      "outputs": [
        {
          "internalType": "address",
          "name": "",
          "type": "address"
        }
      ],
      "stateMutability": "view",
      "type": "function"
    },
    {
      "inputs": [
        {
          "internalType": "string",
          "name": "name_",
          "type": "string"
        },
        {
          "internalType": "string",
          "name": "symbol_",
          "type": "string"
        },
        {
          "internalType": "string",
          "name": "baseUri_",
          "type": "string"
        }
      ],
      "name": "initialize",
      "outputs": [],
      "stateMutability": "nonpayable",
      "type": "function"
    },
    {
      "inputs": [
        {
          "internalType": "address",
          "name": "owner",
          "type": "address"
        },
        {
          "internalType": "address",
          "name": "operator",
          "type": "address"
        }
      ],
      "name": "isApprovedForAll",
      "outputs": [
        {
          "internalType": "bool",
          "name": "",
          "type": "bool"
        }
      ],
      "stateMutability": "view",
      "type": "function"
    },
    {
      "inputs": [
        {
          "internalType": "uint256",
          "name": "number",
          "type": "uint256"
        }
      ],
      "name": "mint",
      "outputs": [],
      "stateMutability": "nonpayable",
      "type": "function"
    },
    {
      "inputs": [],
      "name": "name",
      "outputs": [
        {
          "internalType": "string",
          "name": "",
          "type": "string"
        }
      ],
      "stateMutability": "view",
      "type": "function"
    },
    {
      "inputs": [
        {
          "internalType": "uint256",
          "name": "tokenId",
          "type": "uint256"
        }
      ],
      "name": "ownerOf",
      "outputs": [
        {
          "internalType": "address",
          "name": "",
          "type": "address"
        }
      ],
      "stateMutability": "view",
      "type": "function"
    },
    {
      "inputs": [
        {
          "internalType": "address",
          "name": "from",
          "type": "address"
        },
        {
          "internalType": "address",
          "name": "to",
          "type": "address"
        },
        {
          "internalType": "uint256",
          "name": "tokenId",
          "type": "uint256"
        }
      ],
      "name": "safeTransferFrom",
      "outputs": [],
      "stateMutability": "nonpayable",
      "type": "function"
    },
    {
      "inputs": [
        {
          "internalType": "address",
          "name": "from",
          "type": "address"
        },
        {
          "internalType": "address",
          "name": "to",
          "type": "address"
        },
        {
          "internalType": "uint256",
          "name": "tokenId",
          "type": "uint256"
        },
        {
          "internalType": "bytes",
          "name": "data",
          "type": "bytes"
        }
      ],
      "name": "safeTransferFrom",
      "outputs": [],
      "stateMutability": "nonpayable",
      "type": "function"
    },
    {
      "inputs": [
        {
          "internalType": "address",
          "name": "operator",
          "type": "address"
        },
        {
          "internalType": "bool",
          "name": "approved",
          "type": "bool"
        }
      ],
      "name": "setApprovalForAll",
      "outputs": [],
      "stateMutability": "nonpayable",
      "type": "function"
    },
    {
      "inputs": [
        {
          "internalType": "string",
          "name": "baseUri_",
          "type": "string"
        }
      ],
      "name": "setBaseUri",
      "outputs": [],
      "stateMutability": "nonpayable",
      "type": "function"
    },
    {
      "inputs": [
        {
          "internalType": "bytes4",
          "name": "interfaceId",
          "type": "bytes4"
        }
      ],
      "name": "supportsInterface",
      "outputs": [
        {
          "internalType": "bool",
          "name": "",
          "type": "bool"
        }
      ],
      "stateMutability": "view",
      "type": "function"
    },
    {
      "inputs": [],
      "name": "symbol",
      "outputs": [
        {
          "internalType": "string",
          "name": "",
          "type": "string"
        }
      ],
      "stateMutability": "view",
      "type": "function"
    },
    {
      "inputs": [
        {
          "internalType": "uint256",
          "name": "tokenId",
          "type": "uint256"
        }
      ],
      "name": "tokenURI",
      "outputs": [
        {
          "internalType": "string",
          "name": "",
          "type": "string"
        }
      ],
      "stateMutability": "view",
      "type": "function"
    },
    {
      "inputs": [
        {
          "internalType": "address",
          "name": "from",
          "type": "address"
        },
        {
          "internalType": "address",
          "name": "to",
          "type": "address"
        },
        {
          "internalType": "uint256",
          "name": "tokenId",
          "type": "uint256"
        }
      ],
      "name": "transferFrom",
      "outputs": [],
      "stateMutability": "nonpayable",
      "type": "function"
    },
    {
      "inputs": [
        {
          "internalType": "address",
          "name": "newOwner",
          "type": "address"
        }
      ],
      "name": "transferOwnership",
      "outputs": [],
      "stateMutability": "nonpayable",
      "type": "function"
    }
  ],
  "bytecode": "0x608060405234801561001057600080fd5b506131e8806100206000396000f3fe608060405234801561001057600080fd5b50600436106101215760003560e01c806370a08231116100ad578063a6487c5311610071578063a6487c5314610304578063b88d4fde14610320578063c87b56dd1461033c578063e985e9c51461036c578063f2fde38b1461039c57610121565b806370a082311461026257806395d89b4114610292578063a0712d68146102b0578063a0bcfc7f146102cc578063a22cb465146102e857610121565b806323b872dd116100f457806323b872dd146101c05780633e63eb2a146101dc57806342842e0e146101fa57806342966c68146102165780636352211e1461023257610121565b806301ffc9a71461012657806306fdde0314610156578063081812fc14610174578063095ea7b3146101a4575b600080fd5b610140600480360381019061013b9190611ec3565b6103b8565b60405161014d9190611f0b565b60405180910390f35b61015e61049a565b60405161016b9190611fbf565b60405180910390f35b61018e60048036038101906101899190612017565b61052c565b60405161019b9190612085565b60405180910390f35b6101be60048036038101906101b991906120cc565b610572565b005b6101da60048036038101906101d5919061210c565b61068a565b005b6101e46106ea565b6040516101f19190611fbf565b60405180910390f35b610214600480360381019061020f919061210c565b610778565b005b610230600480360381019061022b9190612017565b610798565b005b61024c60048036038101906102479190612017565b6107f4565b6040516102599190612085565b60405180910390f35b61027c6004803603810190610277919061215f565b6108a6565b604051610289919061219b565b60405180910390f35b61029a61095e565b6040516102a79190611fbf565b60405180910390f35b6102ca60048036038101906102c59190612017565b6109f0565b005b6102e660048036038101906102e1919061221b565b610abf565b005b61030260048036038101906102fd9190612294565b610b65565b005b61031e60048036038101906103199190612404565b610b7b565b005b61033a6004803603810190610335919061254c565b610d20565b005b61035660048036038101906103519190612017565b610d82565b6040516103639190611fbf565b60405180910390f35b610386600480360381019061038191906125cf565b610dea565b6040516103939190611f0b565b60405180910390f35b6103b660048036038101906103b1919061215f565b610e7e565b005b60007f80ac58cd000000000000000000000000000000000000000000000000000000007bffffffffffffffffffffffffffffffffffffffffffffffffffffffff1916827bffffffffffffffffffffffffffffffffffffffffffffffffffffffff1916148061048357507f5b5e139f000000000000000000000000000000000000000000000000000000007bffffffffffffffffffffffffffffffffffffffffffffffffffffffff1916827bffffffffffffffffffffffffffffffffffffffffffffffffffffffff1916145b80610493575061049282610f52565b5b9050919050565b6060606580546104a99061263e565b80601f01602080910402602001604051908101604052809291908181526020018280546104d59061263e565b80156105225780601f106104f757610100808354040283529160200191610522565b820191906000526020600020905b81548152906001019060200180831161050557829003601f168201915b5050505050905090565b600061053782610fbc565b6069600083815260200190815260200160002060009054906101000a900473ffffffffffffffffffffffffffffffffffffffff169050919050565b600061057d826107f4565b90508073ffffffffffffffffffffffffffffffffffffffff168373ffffffffffffffffffffffffffffffffffffffff1614156105ee576040517f08c379a00000000000000000000000000000000000000000000000000000000081526004016105e5906126e2565b60405180910390fd5b8073ffffffffffffffffffffffffffffffffffffffff1661060d611007565b73ffffffffffffffffffffffffffffffffffffffff16148061063c575061063b81610636611007565b610dea565b5b61067b576040517f08c379a000000000000000000000000000000000000000000000000000000000815260040161067290612774565b60405180910390fd5b610685838361100f565b505050565b61069b610695611007565b826110c8565b6106da576040517f08c379a00000000000000000000000000000000000000000000000000000000081526004016106d190612806565b60405180910390fd5b6106e583838361115d565b505050565b609980546106f79061263e565b80601f01602080910402602001604051908101604052809291908181526020018280546107239061263e565b80156107705780601f1061074557610100808354040283529160200191610770565b820191906000526020600020905b81548152906001019060200180831161075357829003601f168201915b505050505081565b61079383838360405180602001604052806000815250610d20565b505050565b6107a96107a3611007565b826110c8565b6107e8576040517f08c379a00000000000000000000000000000000000000000000000000000000081526004016107df90612898565b60405180910390fd5b6107f1816113c4565b50565b6000806067600084815260200190815260200160002060009054906101000a900473ffffffffffffffffffffffffffffffffffffffff169050600073ffffffffffffffffffffffffffffffffffffffff168173ffffffffffffffffffffffffffffffffffffffff16141561089d576040517f08c379a000000000000000000000000000000000000000000000000000000000815260040161089490612904565b60405180910390fd5b80915050919050565b60008073ffffffffffffffffffffffffffffffffffffffff168273ffffffffffffffffffffffffffffffffffffffff161415610917576040517f08c379a000000000000000000000000000000000000000000000000000000000815260040161090e90612996565b60405180910390fd5b606860008373ffffffffffffffffffffffffffffffffffffffff1673ffffffffffffffffffffffffffffffffffffffff168152602001908152602001600020549050919050565b60606066805461096d9061263e565b80601f01602080910402602001604051908101604052809291908181526020018280546109999061263e565b80156109e65780601f106109bb576101008083540402835291602001916109e6565b820191906000526020600020905b8154815290600101906020018083116109c957829003601f168201915b5050505050905090565b609860009054906101000a900473ffffffffffffffffffffffffffffffffffffffff1673ffffffffffffffffffffffffffffffffffffffff163373ffffffffffffffffffffffffffffffffffffffff1614610a80576040517f08c379a0000000000000000000000000000000000000000000000000000000008152600401610a7790612a02565b60405180910390fd5b60005b81811015610abb57610a9e33610a9960976114e1565b6114ef565b610aa860976116c9565b8080610ab390612a51565b915050610a83565b5050565b609860009054906101000a900473ffffffffffffffffffffffffffffffffffffffff1673ffffffffffffffffffffffffffffffffffffffff163373ffffffffffffffffffffffffffffffffffffffff1614610b4f576040517f08c379a0000000000000000000000000000000000000000000000000000000008152600401610b4690612a02565b60405180910390fd5b818160999190610b60929190611d2e565b505050565b610b77610b70611007565b83836116df565b5050565b60008060019054906101000a900460ff16159050808015610bac5750600160008054906101000a900460ff1660ff16105b80610bd95750610bbb3061184c565b158015610bd85750600160008054906101000a900460ff1660ff16145b5b610c18576040517f08c379a0000000000000000000000000000000000000000000000000000000008152600401610c0f90612b0c565b60405180910390fd5b60016000806101000a81548160ff021916908360ff1602179055508015610c55576001600060016101000a81548160ff0219169083151502179055505b610c5f848461186f565b33609860006101000a81548173ffffffffffffffffffffffffffffffffffffffff021916908373ffffffffffffffffffffffffffffffffffffffff160217905550610caa60976116c9565b8160999080519060200190610cc0929190611db4565b508015610d1a5760008060016101000a81548160ff0219169083151502179055507f7f26b83ff96e1f2b6a682f133852f6798a09c465da95921460cefb38474024986001604051610d119190612b7e565b60405180910390a15b50505050565b610d31610d2b611007565b836110c8565b610d70576040517f08c379a0000000000000000000000000000000000000000000000000000000008152600401610d6790612806565b60405180910390fd5b610d7c848484846118cc565b50505050565b6060610d8d82610fbc565b6000610d97611928565b90506000815111610db75760405180602001604052806000815250610de2565b80610dc18461193f565b604051602001610dd2929190612bd5565b6040516020818303038152906040525b915050919050565b6000606a60008473ffffffffffffffffffffffffffffffffffffffff1673ffffffffffffffffffffffffffffffffffffffff16815260200190815260200160002060008373ffffffffffffffffffffffffffffffffffffffff1673ffffffffffffffffffffffffffffffffffffffff16815260200190815260200160002060009054906101000a900460ff16905092915050565b609860009054906101000a900473ffffffffffffffffffffffffffffffffffffffff1673ffffffffffffffffffffffffffffffffffffffff163373ffffffffffffffffffffffffffffffffffffffff1614610f0e576040517f08c379a0000000000000000000000000000000000000000000000000000000008152600401610f0590612a02565b60405180910390fd5b80609860006101000a81548173ffffffffffffffffffffffffffffffffffffffff021916908373ffffffffffffffffffffffffffffffffffffffff16021790555050565b60007f01ffc9a7000000000000000000000000000000000000000000000000000000007bffffffffffffffffffffffffffffffffffffffffffffffffffffffff1916827bffffffffffffffffffffffffffffffffffffffffffffffffffffffff1916149050919050565b610fc581611aa0565b611004576040517f08c379a0000000000000000000000000000000000000000000000000000000008152600401610ffb90612904565b60405180910390fd5b50565b600033905090565b816069600083815260200190815260200160002060006101000a81548173ffffffffffffffffffffffffffffffffffffffff021916908373ffffffffffffffffffffffffffffffffffffffff160217905550808273ffffffffffffffffffffffffffffffffffffffff16611082836107f4565b73ffffffffffffffffffffffffffffffffffffffff167f8c5be1e5ebec7d5bd14f71427d1e84f3dd0314c0f7b2291e5b200ac8c7c3b92560405160405180910390a45050565b6000806110d4836107f4565b90508073ffffffffffffffffffffffffffffffffffffffff168473ffffffffffffffffffffffffffffffffffffffff16148061111657506111158185610dea565b5b8061115457508373ffffffffffffffffffffffffffffffffffffffff1661113c8461052c565b73ffffffffffffffffffffffffffffffffffffffff16145b91505092915050565b8273ffffffffffffffffffffffffffffffffffffffff1661117d826107f4565b73ffffffffffffffffffffffffffffffffffffffff16146111d3576040517f08c379a00000000000000000000000000000000000000000000000000000000081526004016111ca90612c6b565b60405180910390fd5b600073ffffffffffffffffffffffffffffffffffffffff168273ffffffffffffffffffffffffffffffffffffffff161415611243576040517f08c379a000000000000000000000000000000000000000000000000000000000815260040161123a90612cfd565b60405180910390fd5b61124e838383611b0c565b61125960008261100f565b6001606860008573ffffffffffffffffffffffffffffffffffffffff1673ffffffffffffffffffffffffffffffffffffffff16815260200190815260200160002060008282546112a99190612d1d565b925050819055506001606860008473ffffffffffffffffffffffffffffffffffffffff1673ffffffffffffffffffffffffffffffffffffffff16815260200190815260200160002060008282546113009190612d51565b92505081905550816067600083815260200190815260200160002060006101000a81548173ffffffffffffffffffffffffffffffffffffffff021916908373ffffffffffffffffffffffffffffffffffffffff160217905550808273ffffffffffffffffffffffffffffffffffffffff168473ffffffffffffffffffffffffffffffffffffffff167fddf252ad1be2c89b69c2b068fc378daa952ba7f163c4a11628f55a4df523b3ef60405160405180910390a46113bf838383611b11565b505050565b60006113cf826107f4565b90506113dd81600084611b0c565b6113e860008361100f565b6001606860008373ffffffffffffffffffffffffffffffffffffffff1673ffffffffffffffffffffffffffffffffffffffff16815260200190815260200160002060008282546114389190612d1d565b925050819055506067600083815260200190815260200160002060006101000a81549073ffffffffffffffffffffffffffffffffffffffff021916905581600073ffffffffffffffffffffffffffffffffffffffff168273ffffffffffffffffffffffffffffffffffffffff167fddf252ad1be2c89b69c2b068fc378daa952ba7f163c4a11628f55a4df523b3ef60405160405180910390a46114dd81600084611b11565b5050565b600081600001549050919050565b600073ffffffffffffffffffffffffffffffffffffffff168273ffffffffffffffffffffffffffffffffffffffff16141561155f576040517f08c379a000000000000000000000000000000000000000000000000000000000815260040161155690612df3565b60405180910390fd5b61156881611aa0565b156115a8576040517f08c379a000000000000000000000000000000000000000000000000000000000815260040161159f90612e5f565b60405180910390fd5b6115b460008383611b0c565b6001606860008473ffffffffffffffffffffffffffffffffffffffff1673ffffffffffffffffffffffffffffffffffffffff16815260200190815260200160002060008282546116049190612d51565b92505081905550816067600083815260200190815260200160002060006101000a81548173ffffffffffffffffffffffffffffffffffffffff021916908373ffffffffffffffffffffffffffffffffffffffff160217905550808273ffffffffffffffffffffffffffffffffffffffff16600073ffffffffffffffffffffffffffffffffffffffff167fddf252ad1be2c89b69c2b068fc378daa952ba7f163c4a11628f55a4df523b3ef60405160405180910390a46116c560008383611b11565b5050565b6001816000016000828254019250508190555050565b8173ffffffffffffffffffffffffffffffffffffffff168373ffffffffffffffffffffffffffffffffffffffff16141561174e576040517f08c379a000000000000000000000000000000000000000000000000000000000815260040161174590612ecb565b60405180910390fd5b80606a60008573ffffffffffffffffffffffffffffffffffffffff1673ffffffffffffffffffffffffffffffffffffffff16815260200190815260200160002060008473ffffffffffffffffffffffffffffffffffffffff1673ffffffffffffffffffffffffffffffffffffffff16815260200190815260200160002060006101000a81548160ff0219169083151502179055508173ffffffffffffffffffffffffffffffffffffffff168373ffffffffffffffffffffffffffffffffffffffff167f17307eab39ab6107e8899845ad3d59bd9653f200f220920489ca2b5937696c318360405161183f9190611f0b565b60405180910390a3505050565b6000808273ffffffffffffffffffffffffffffffffffffffff163b119050919050565b600060019054906101000a900460ff166118be576040517f08c379a00000000000000000000000000000000000000000000000000000000081526004016118b590612f5d565b60405180910390fd5b6118c88282611b16565b5050565b6118d784848461115d565b6118e384848484611b97565b611922576040517f08c379a000000000000000000000000000000000000000000000000000000000815260040161191990612fef565b60405180910390fd5b50505050565b606060405180602001604052806000815250905090565b60606000821415611987576040518060400160405280600181526020017f30000000000000000000000000000000000000000000000000000000000000008152509050611a9b565b600082905060005b600082146119b95780806119a290612a51565b915050600a826119b2919061303e565b915061198f565b60008167ffffffffffffffff8111156119d5576119d46122d9565b5b6040519080825280601f01601f191660200182016040528015611a075781602001600182028036833780820191505090505b5090505b60008514611a9457600182611a209190612d1d565b9150600a85611a2f919061306f565b6030611a3b9190612d51565b60f81b818381518110611a5157611a506130a0565b5b60200101907effffffffffffffffffffffffffffffffffffffffffffffffffffffffffffff1916908160001a905350600a85611a8d919061303e565b9450611a0b565b8093505050505b919050565b60008073ffffffffffffffffffffffffffffffffffffffff166067600084815260200190815260200160002060009054906101000a900473ffffffffffffffffffffffffffffffffffffffff1673ffffffffffffffffffffffffffffffffffffffff1614159050919050565b505050565b505050565b600060019054906101000a900460ff16611b65576040517f08c379a0000000000000000000000000000000000000000000000000000000008152600401611b5c90612f5d565b60405180910390fd5b8160659080519060200190611b7b929190611db4565b508060669080519060200190611b92929190611db4565b505050565b6000611bb88473ffffffffffffffffffffffffffffffffffffffff1661184c565b15611d21578373ffffffffffffffffffffffffffffffffffffffff1663150b7a02611be1611007565b8786866040518563ffffffff1660e01b8152600401611c039493929190613124565b602060405180830381600087803b158015611c1d57600080fd5b505af1925050508015611c4e57506040513d601f19601f82011682018060405250810190611c4b9190613185565b60015b611cd1573d8060008114611c7e576040519150601f19603f3d011682016040523d82523d6000602084013e611c83565b606091505b50600081511415611cc9576040517f08c379a0000000000000000000000000000000000000000000000000000000008152600401611cc090612fef565b60405180910390fd5b805181602001fd5b63150b7a0260e01b7bffffffffffffffffffffffffffffffffffffffffffffffffffffffff1916817bffffffffffffffffffffffffffffffffffffffffffffffffffffffff191614915050611d26565b600190505b949350505050565b828054611d3a9061263e565b90600052602060002090601f016020900481019282611d5c5760008555611da3565b82601f10611d7557803560ff1916838001178555611da3565b82800160010185558215611da3579182015b82811115611da2578235825591602001919060010190611d87565b5b509050611db09190611e3a565b5090565b828054611dc09061263e565b90600052602060002090601f016020900481019282611de25760008555611e29565b82601f10611dfb57805160ff1916838001178555611e29565b82800160010185558215611e29579182015b82811115611e28578251825591602001919060010190611e0d565b5b509050611e369190611e3a565b5090565b5b80821115611e53576000816000905550600101611e3b565b5090565b6000604051905090565b600080fd5b600080fd5b60007fffffffff0000000000000000000000000000000000000000000000000000000082169050919050565b611ea081611e6b565b8114611eab57600080fd5b50565b600081359050611ebd81611e97565b92915050565b600060208284031215611ed957611ed8611e61565b5b6000611ee784828501611eae565b91505092915050565b60008115159050919050565b611f0581611ef0565b82525050565b6000602082019050611f206000830184611efc565b92915050565b600081519050919050565b600082825260208201905092915050565b60005b83811015611f60578082015181840152602081019050611f45565b83811115611f6f576000848401525b50505050565b6000601f19601f8301169050919050565b6000611f9182611f26565b611f9b8185611f31565b9350611fab818560208601611f42565b611fb481611f75565b840191505092915050565b60006020820190508181036000830152611fd98184611f86565b905092915050565b6000819050919050565b611ff481611fe1565b8114611fff57600080fd5b50565b60008135905061201181611feb565b92915050565b60006020828403121561202d5761202c611e61565b5b600061203b84828501612002565b91505092915050565b600073ffffffffffffffffffffffffffffffffffffffff82169050919050565b600061206f82612044565b9050919050565b61207f81612064565b82525050565b600060208201905061209a6000830184612076565b92915050565b6120a981612064565b81146120b457600080fd5b50565b6000813590506120c6816120a0565b92915050565b600080604083850312156120e3576120e2611e61565b5b60006120f1858286016120b7565b925050602061210285828601612002565b9150509250929050565b60008060006060848603121561212557612124611e61565b5b6000612133868287016120b7565b9350506020612144868287016120b7565b925050604061215586828701612002565b9150509250925092565b60006020828403121561217557612174611e61565b5b6000612183848285016120b7565b91505092915050565b61219581611fe1565b82525050565b60006020820190506121b0600083018461218c565b92915050565b600080fd5b600080fd5b600080fd5b60008083601f8401126121db576121da6121b6565b5b8235905067ffffffffffffffff8111156121f8576121f76121bb565b5b602083019150836001820283011115612214576122136121c0565b5b9250929050565b6000806020838503121561223257612231611e61565b5b600083013567ffffffffffffffff8111156122505761224f611e66565b5b61225c858286016121c5565b92509250509250929050565b61227181611ef0565b811461227c57600080fd5b50565b60008135905061228e81612268565b92915050565b600080604083850312156122ab576122aa611e61565b5b60006122b9858286016120b7565b92505060206122ca8582860161227f565b9150509250929050565b600080fd5b7f4e487b7100000000000000000000000000000000000000000000000000000000600052604160045260246000fd5b61231182611f75565b810181811067ffffffffffffffff821117156123305761232f6122d9565b5b80604052505050565b6000612343611e57565b905061234f8282612308565b919050565b600067ffffffffffffffff82111561236f5761236e6122d9565b5b61237882611f75565b9050602081019050919050565b82818337600083830152505050565b60006123a76123a284612354565b612339565b9050828152602081018484840111156123c3576123c26122d4565b5b6123ce848285612385565b509392505050565b600082601f8301126123eb576123ea6121b6565b5b81356123fb848260208601612394565b91505092915050565b60008060006060848603121561241d5761241c611e61565b5b600084013567ffffffffffffffff81111561243b5761243a611e66565b5b612447868287016123d6565b935050602084013567ffffffffffffffff81111561246857612467611e66565b5b612474868287016123d6565b925050604084013567ffffffffffffffff81111561249557612494611e66565b5b6124a1868287016123d6565b9150509250925092565b600067ffffffffffffffff8211156124c6576124c56122d9565b5b6124cf82611f75565b9050602081019050919050565b60006124ef6124ea846124ab565b612339565b90508281526020810184848401111561250b5761250a6122d4565b5b612516848285612385565b509392505050565b600082601f830112612533576125326121b6565b5b81356125438482602086016124dc565b91505092915050565b6000806000806080858703121561256657612565611e61565b5b6000612574878288016120b7565b9450506020612585878288016120b7565b935050604061259687828801612002565b925050606085013567ffffffffffffffff8111156125b7576125b6611e66565b5b6125c38782880161251e565b91505092959194509250565b600080604083850312156125e6576125e5611e61565b5b60006125f4858286016120b7565b9250506020612605858286016120b7565b9150509250929050565b7f4e487b7100000000000000000000000000000000000000000000000000000000600052602260045260246000fd5b6000600282049050600182168061265657607f821691505b6020821081141561266a5761266961260f565b5b50919050565b7f4552433732313a20617070726f76616c20746f2063757272656e74206f776e6560008201527f7200000000000000000000000000000000000000000000000000000000000000602082015250565b60006126cc602183611f31565b91506126d782612670565b604082019050919050565b600060208201905081810360008301526126fb816126bf565b9050919050565b7f4552433732313a20617070726f76652063616c6c6572206973206e6f7420746f60008201527f6b656e206f776e6572206e6f7220617070726f76656420666f7220616c6c0000602082015250565b600061275e603e83611f31565b915061276982612702565b604082019050919050565b6000602082019050818103600083015261278d81612751565b9050919050565b7f4552433732313a2063616c6c6572206973206e6f7420746f6b656e206f776e6560008201527f72206e6f7220617070726f766564000000000000000000000000000000000000602082015250565b60006127f0602e83611f31565b91506127fb82612794565b604082019050919050565b6000602082019050818103600083015261281f816127e3565b9050919050565b7f43524f574e4e46543a204e6f74206f776e6572206f7220617070726f7665642060008201527f6279206f776e6572000000000000000000000000000000000000000000000000602082015250565b6000612882602883611f31565b915061288d82612826565b604082019050919050565b600060208201905081810360008301526128b181612875565b9050919050565b7f4552433732313a20696e76616c696420746f6b656e2049440000000000000000600082015250565b60006128ee601883611f31565b91506128f9826128b8565b602082019050919050565b6000602082019050818103600083015261291d816128e1565b9050919050565b7f4552433732313a2061646472657373207a65726f206973206e6f74206120766160008201527f6c6964206f776e65720000000000000000000000000000000000000000000000602082015250565b6000612980602983611f31565b915061298b82612924565b604082019050919050565b600060208201905081810360008301526129af81612973565b9050919050565b7f46697368646f6d4e46543a204f6e6c79206f776e657200000000000000000000600082015250565b60006129ec601683611f31565b91506129f7826129b6565b602082019050919050565b60006020820190508181036000830152612a1b816129df565b9050919050565b7f4e487b7100000000000000000000000000000000000000000000000000000000600052601160045260246000fd5b6000612a5c82611fe1565b91507fffffffffffffffffffffffffffffffffffffffffffffffffffffffffffffffff821415612a8f57612a8e612a22565b5b600182019050919050565b7f496e697469616c697a61626c653a20636f6e747261637420697320616c72656160008201527f647920696e697469616c697a6564000000000000000000000000000000000000602082015250565b6000612af6602e83611f31565b9150612b0182612a9a565b604082019050919050565b60006020820190508181036000830152612b2581612ae9565b9050919050565b6000819050919050565b600060ff82169050919050565b6000819050919050565b6000612b68612b63612b5e84612b2c565b612b43565b612b36565b9050919050565b612b7881612b4d565b82525050565b6000602082019050612b936000830184612b6f565b92915050565b600081905092915050565b6000612baf82611f26565b612bb98185612b99565b9350612bc9818560208601611f42565b80840191505092915050565b6000612be18285612ba4565b9150612bed8284612ba4565b91508190509392505050565b7f4552433732313a207472616e736665722066726f6d20696e636f72726563742060008201527f6f776e6572000000000000000000000000000000000000000000000000000000602082015250565b6000612c55602583611f31565b9150612c6082612bf9565b604082019050919050565b60006020820190508181036000830152612c8481612c48565b9050919050565b7f4552433732313a207472616e7366657220746f20746865207a65726f2061646460008201527f7265737300000000000000000000000000000000000000000000000000000000602082015250565b6000612ce7602483611f31565b9150612cf282612c8b565b604082019050919050565b60006020820190508181036000830152612d1681612cda565b9050919050565b6000612d2882611fe1565b9150612d3383611fe1565b925082821015612d4657612d45612a22565b5b828203905092915050565b6000612d5c82611fe1565b9150612d6783611fe1565b9250827fffffffffffffffffffffffffffffffffffffffffffffffffffffffffffffffff03821115612d9c57612d9b612a22565b5b828201905092915050565b7f4552433732313a206d696e7420746f20746865207a65726f2061646472657373600082015250565b6000612ddd602083611f31565b9150612de882612da7565b602082019050919050565b60006020820190508181036000830152612e0c81612dd0565b9050919050565b7f4552433732313a20746f6b656e20616c7265616479206d696e74656400000000600082015250565b6000612e49601c83611f31565b9150612e5482612e13565b602082019050919050565b60006020820190508181036000830152612e7881612e3c565b9050919050565b7f4552433732313a20617070726f766520746f2063616c6c657200000000000000600082015250565b6000612eb5601983611f31565b9150612ec082612e7f565b602082019050919050565b60006020820190508181036000830152612ee481612ea8565b9050919050565b7f496e697469616c697a61626c653a20636f6e7472616374206973206e6f74206960008201527f6e697469616c697a696e67000000000000000000000000000000000000000000602082015250565b6000612f47602b83611f31565b9150612f5282612eeb565b604082019050919050565b60006020820190508181036000830152612f7681612f3a565b9050919050565b7f4552433732313a207472616e7366657220746f206e6f6e20455243373231526560008201527f63656976657220696d706c656d656e7465720000000000000000000000000000602082015250565b6000612fd9603283611f31565b9150612fe482612f7d565b604082019050919050565b6000602082019050818103600083015261300881612fcc565b9050919050565b7f4e487b7100000000000000000000000000000000000000000000000000000000600052601260045260246000fd5b600061304982611fe1565b915061305483611fe1565b9250826130645761306361300f565b5b828204905092915050565b600061307a82611fe1565b915061308583611fe1565b9250826130955761309461300f565b5b828206905092915050565b7f4e487b7100000000000000000000000000000000000000000000000000000000600052603260045260246000fd5b600081519050919050565b600082825260208201905092915050565b60006130f6826130cf565b61310081856130da565b9350613110818560208601611f42565b61311981611f75565b840191505092915050565b60006080820190506131396000830187612076565b6131466020830186612076565b613153604083018561218c565b818103606083015261316581846130eb565b905095945050505050565b60008151905061317f81611e97565b92915050565b60006020828403121561319b5761319a611e61565b5b60006131a984828501613170565b9150509291505056fea26469706673582212201cf80520577ba68c095538a97390c3383979ffdf2e8b8aedeb3d2c82598d6fcd64736f6c63430008090033",
  "linkReferences": {},
  "deployedLinkReferences": {}
}