{"_format":"hh-sol-artifact-1","contractName":"FishdomStaking","sourceName":"contracts/FishdomStaking.sol","abi":[{"inputs":[{"internalType":"address","name":"token_","type":"address"}],"stateMutability":"nonpayable","type":"constructor"},{"anonymous":false,"inputs":[{"indexed":true,"internalType":"uint256","name":"stakeId","type":"uint256"},{"indexed":true,"internalType":"address","name":"owner","type":"address"},{"indexed":true,"internalType":"uint256","name":"amount","type":"uint256"}],"name":"Claimed","type":"event"},{"anonymous":false,"inputs":[{"indexed":true,"internalType":"uint256","name":"stakeId","type":"uint256"},{"indexed":true,"internalType":"address","name":"owner","type":"address"},{"indexed":false,"internalType":"uint256","name":"amount","type":"uint256"},{"indexed":false,"internalType":"uint256","name":"duration","type":"uint256"},{"indexed":false,"internalType":"uint256","name":"apr","type":"uint256"}],"name":"Staked","type":"event"},{"anonymous":false,"inputs":[{"indexed":true,"internalType":"uint256","name":"stakeId","type":"uint256"},{"indexed":true,"internalType":"address","name":"owner","type":"address"},{"indexed":false,"internalType":"uint256","name":"claimed","type":"uint256"}],"name":"Unstaked","type":"event"},{"inputs":[{"internalType":"uint256","name":"_stakingId","type":"uint256"}],"name":"claim","outputs":[],"stateMutability":"nonpayable","type":"function"},{"inputs":[{"internalType":"uint256","name":"stakingId","type":"uint256"}],"name":"getEarned","outputs":[{"internalType":"uint256","name":"","type":"uint256"}],"stateMutability":"view","type":"function"},{"inputs":[],"name":"getListPackage","outputs":[{"components":[{"internalType":"uint256","name":"apr","type":"uint256"},{"internalType":"uint256","name":"duration","type":"uint256"},{"internalType":"uint8","name":"id","type":"uint8"}],"internalType":"struct FishdomStaking.Package[4]","name":"","type":"tuple[4]"}],"stateMutability":"view","type":"function"},{"inputs":[],"name":"initialize","outputs":[],"stateMutability":"nonpayable","type":"function"},{"inputs":[{"internalType":"uint8","name":"_stakingId","type":"uint8"},{"internalType":"uint256","name":"_amount","type":"uint256"}],"name":"stake","outputs":[],"stateMutability":"nonpayable","type":"function"},{"inputs":[{"internalType":"address","name":"newOwner","type":"address"}],"name":"transferOwnership","outputs":[],"stateMutability":"nonpayable","type":"function"},{"inputs":[{"internalType":"uint256","name":"_stakingId","type":"uint256"}],"name":"unstake","outputs":[],"stateMutability":"nonpayable","type":"function"}],"bytecode":"0x60806040523480156200001157600080fd5b5060405162001b7e38038062001b7e833981810160405281019062000037919062000129565b806000806101000a81548173ffffffffffffffffffffffffffffffffffffffff021916908373ffffffffffffffffffffffffffffffffffffffff16021790555033600160006101000a81548173ffffffffffffffffffffffffffffffffffffffff021916908373ffffffffffffffffffffffffffffffffffffffff160217905550506200015b565b600080fd5b600073ffffffffffffffffffffffffffffffffffffffff82169050919050565b6000620000f182620000c4565b9050919050565b6200010381620000e4565b81146200010f57600080fd5b50565b6000815190506200012381620000f8565b92915050565b600060208284031215620001425762000141620000bf565b5b6000620001528482850162000112565b91505092915050565b611a13806200016b6000396000f3fe608060405234801561001057600080fd5b506004361061007d5760003560e01c8063a96e588f1161005b578063a96e588f146100c4578063dd752e55146100e2578063e9387504146100fe578063f2fde38b1461012e5761007d565b80632e17de7814610082578063379607f51461009e5780638129fc1c146100ba575b600080fd5b61009c600480360381019061009791906111ef565b61014a565b005b6100b860048036038101906100b391906111ef565b61046c565b005b6100c261082e565b005b6100cc610aa5565b6040516100d99190611325565b60405180910390f35b6100fc60048036038101906100f7919061136d565b610b28565b005b610118600480360381019061011391906111ef565b610ea6565b60405161012591906113bc565b60405180910390f35b61014860048036038101906101439190611435565b610eba565b005b6000600282815481106101605761015f611462565b5b90600052602060002090600502016040518060c0016040529081600082015481526020016001820160009054906101000a900473ffffffffffffffffffffffffffffffffffffffff1673ffffffffffffffffffffffffffffffffffffffff1673ffffffffffffffffffffffffffffffffffffffff1681526020016001820160149054906101000a900463ffffffff1663ffffffff1663ffffffff168152602001600282015481526020016003820154815260200160048201548152505090506000816080015114610266576040517f08c379a000000000000000000000000000000000000000000000000000000000815260040161025d90611514565b60405180910390fd5b806020015173ffffffffffffffffffffffffffffffffffffffff163373ffffffffffffffffffffffffffffffffffffffff16146102d8576040517f08c379a00000000000000000000000000000000000000000000000000000000081526004016102cf90611580565b60405180910390fd5b60006102e5836001610f8e565b9050600283815481106102fb576102fa611462565b5b90600052602060002090600502016000808201600090556001820160006101000a81549073ffffffffffffffffffffffffffffffffffffffff02191690556001820160146101000a81549063ffffffff021916905560028201600090556003820160009055600482016000905550503373ffffffffffffffffffffffffffffffffffffffff16837f37375b03d8924bd8f076f11f8411b9962aa5c02fb489021507bc6bb6f850e365836040516103b191906113bc565b60405180910390a360008054906101000a900473ffffffffffffffffffffffffffffffffffffffff1673ffffffffffffffffffffffffffffffffffffffff1663a9059cbb33836040518363ffffffff1660e01b81526004016104149291906115af565b602060405180830381600087803b15801561042e57600080fd5b505af1158015610442573d6000803e3d6000fd5b505050506040513d601f19601f820116820180604052508101906104669190611610565b50505050565b60006002828154811061048257610481611462565b5b90600052602060002090600502016040518060c0016040529081600082015481526020016001820160009054906101000a900473ffffffffffffffffffffffffffffffffffffffff1673ffffffffffffffffffffffffffffffffffffffff1673ffffffffffffffffffffffffffffffffffffffff1681526020016001820160149054906101000a900463ffffffff1663ffffffff1663ffffffff16815260200160028201548152602001600382015481526020016004820154815250509050806020015173ffffffffffffffffffffffffffffffffffffffff163373ffffffffffffffffffffffffffffffffffffffff16146105b3576040517f08c379a00000000000000000000000000000000000000000000000000000000081526004016105aa90611580565b60405180910390fd5b6000816080015190506000811461063557600082604001519050600a826105da919061166c565b8163ffffffff166105eb91906116c6565b4263ffffffff161015610633576040517f08c379a000000000000000000000000000000000000000000000000000000000815260040161062a90611768565b60405180910390fd5b505b6000610642846000610f8e565b9050600081111561082857600082146106ef5782606001518161066591906116c6565b90506002848154811061067b5761067a611462565b5b90600052602060002090600502016000808201600090556001820160006101000a81549073ffffffffffffffffffffffffffffffffffffffff02191690556001820160146101000a81549063ffffffff02191690556002820160009055600382016000905560048201600090555050610734565b426002858154811061070457610703611462565b5b906000526020600020906005020160010160146101000a81548163ffffffff021916908363ffffffff1602179055505b60008054906101000a900473ffffffffffffffffffffffffffffffffffffffff1673ffffffffffffffffffffffffffffffffffffffff1663a9059cbb33836040518363ffffffff1660e01b815260040161078f9291906115af565b602060405180830381600087803b1580156107a957600080fd5b505af11580156107bd573d6000803e3d6000fd5b505050506040513d601f19601f820116820180604052508101906107e19190611610565b50803373ffffffffffffffffffffffffffffffffffffffff16857f4ec90e965519d92681267467f775ada5bd214aa92c0dc93d90a5e880ce9ed02660405160405180910390a45b50505050565b600160009054906101000a900473ffffffffffffffffffffffffffffffffffffffff1673ffffffffffffffffffffffffffffffffffffffff163373ffffffffffffffffffffffffffffffffffffffff16146108be576040517f08c379a00000000000000000000000000000000000000000000000000000000081526004016108b5906117d4565b60405180910390fd5b606460036000600481106108d5576108d4611462565b5b6003020160000181905550601e60036000600481106108f7576108f6611462565b5b60030201600101819055506000600360006004811061091957610918611462565b5b6003020160020160006101000a81548160ff021916908360ff160217905550608a600360016004811061094f5761094e611462565b5b6003020160000181905550605a600360016004811061097157610970611462565b5b60030201600101819055506001600360016004811061099357610992611462565b5b6003020160020160006101000a81548160ff021916908360ff16021790555060dc60036002600481106109c9576109c8611462565b5b600302016000018190555060b460036002600481106109eb576109ea611462565b5b600302016001018190555060026003600260048110610a0d57610a0c611462565b5b6003020160020160006101000a81548160ff021916908360ff160217905550600560038060048110610a4257610a41611462565b5b6003020160000181905550600060038060048110610a6357610a62611462565b5b6003020160010181905550600380600360048110610a8457610a83611462565b5b6003020160020160006101000a81548160ff021916908360ff160217905550565b610aad611163565b6003600480602002604051908101604052809291906000905b82821015610b1f5783826003020160405180606001604052908160008201548152602001600182015481526020016002820160009054906101000a900460ff1660ff1660ff168152505081526020019060010190610ac6565b50505050905090565b600060038360ff1660048110610b4157610b40611462565b5b6003020160405180606001604052908160008201548152602001600182015481526020016002820160009054906101000a900460ff1660ff1660ff1681525050905060008060009054906101000a900473ffffffffffffffffffffffffffffffffffffffff1673ffffffffffffffffffffffffffffffffffffffff1663dd62ed3e33306040518363ffffffff1660e01b8152600401610be19291906117f4565b60206040518083038186803b158015610bf957600080fd5b505afa158015610c0d573d6000803e3d6000fd5b505050506040513d601f19601f82011682018060405250810190610c319190611832565b905082811015610c76576040517f08c379a0000000000000000000000000000000000000000000000000000000008152600401610c6d906118ab565b60405180910390fd5b60008054906101000a900473ffffffffffffffffffffffffffffffffffffffff1673ffffffffffffffffffffffffffffffffffffffff166323b872dd3330866040518463ffffffff1660e01b8152600401610cd3939291906118cb565b602060405180830381600087803b158015610ced57600080fd5b505af1158015610d01573d6000803e3d6000fd5b505050506040513d601f19601f82011682018060405250810190610d259190611610565b506000600280549050905060026040518060c001604052808381526020013373ffffffffffffffffffffffffffffffffffffffff1681526020014263ffffffff16815260200186815260200185602001518152602001856000015181525090806001815401808255809150506001900390600052602060002090600502016000909190919091506000820151816000015560208201518160010160006101000a81548173ffffffffffffffffffffffffffffffffffffffff021916908373ffffffffffffffffffffffffffffffffffffffff16021790555060408201518160010160146101000a81548163ffffffff021916908363ffffffff160217905550606082015181600201556080820151816003015560a0820151816004015550503373ffffffffffffffffffffffffffffffffffffffff16817f94f54bb48cedd45253f4ace35b1e25b1396407c5316b875feafaf710a8a1c48e8686602001518760000151604051610e9793929190611902565b60405180910390a35050505050565b6000610eb3826001610f8e565b9050919050565b600160009054906101000a900473ffffffffffffffffffffffffffffffffffffffff1673ffffffffffffffffffffffffffffffffffffffff163373ffffffffffffffffffffffffffffffffffffffff1614610f4a576040517f08c379a0000000000000000000000000000000000000000000000000000000008152600401610f41906117d4565b60405180910390fd5b80600160006101000a81548173ffffffffffffffffffffffffffffffffffffffff021916908373ffffffffffffffffffffffffffffffffffffffff16021790555050565b60008060028481548110610fa557610fa4611462565b5b90600052602060002090600502016040518060c0016040529081600082015481526020016001820160009054906101000a900473ffffffffffffffffffffffffffffffffffffffff1673ffffffffffffffffffffffffffffffffffffffff1673ffffffffffffffffffffffffffffffffffffffff1681526020016001820160149054906101000a900463ffffffff1663ffffffff1663ffffffff1681526020016002820154815260200160038201548152602001600482015481525050905060008160a00151905060008260800151141561110b576000600a600161108a919061166c565b83604001514261109a9190611949565b63ffffffff166110aa91906119ac565b90506000606461016d6110bd919061166c565b828486606001516110ce919061166c565b6110d8919061166c565b6110e291906119ac565b9050856110ef5780611100565b8084606001516110ff91906116c6565b5b94505050505061115d565b6000606461016d61111c919061166c565b8360800151838560600151611131919061166c565b61113b919061166c565b61114591906119ac565b905080836060015161115791906116c6565b93505050505b92915050565b60405180608001604052806004905b61117a611190565b8152602001906001900390816111725790505090565b60405180606001604052806000815260200160008152602001600060ff1681525090565b600080fd5b6000819050919050565b6111cc816111b9565b81146111d757600080fd5b50565b6000813590506111e9816111c3565b92915050565b600060208284031215611205576112046111b4565b5b6000611213848285016111da565b91505092915050565b600060049050919050565b600081905092915050565b6000819050919050565b611245816111b9565b82525050565b600060ff82169050919050565b6112618161124b565b82525050565b60608201600082015161127d600085018261123c565b506020820151611290602085018261123c565b5060408201516112a36040850182611258565b50505050565b60006112b58383611267565b60608301905092915050565b6000602082019050919050565b6112d78161121c565b6112e18184611227565b92506112ec82611232565b8060005b8381101561131d57815161130487826112a9565b965061130f836112c1565b9250506001810190506112f0565b505050505050565b60006101808201905061133b60008301846112ce565b92915050565b61134a8161124b565b811461135557600080fd5b50565b60008135905061136781611341565b92915050565b60008060408385031215611384576113836111b4565b5b600061139285828601611358565b92505060206113a3858286016111da565b9150509250929050565b6113b6816111b9565b82525050565b60006020820190506113d160008301846113ad565b92915050565b600073ffffffffffffffffffffffffffffffffffffffff82169050919050565b6000611402826113d7565b9050919050565b611412816113f7565b811461141d57600080fd5b50565b60008135905061142f81611409565b92915050565b60006020828403121561144b5761144a6111b4565b5b600061145984828501611420565b91505092915050565b7f4e487b7100000000000000000000000000000000000000000000000000000000600052603260045260246000fd5b600082825260208201905092915050565b7f43616e6e6f7420756e7374616b65206669786564207374616b696e672070616360008201527f6b61676500000000000000000000000000000000000000000000000000000000602082015250565b60006114fe602483611491565b9150611509826114a2565b604082019050919050565b6000602082019050818103600083015261152d816114f1565b9050919050565b7f4f776e61626c653a204e6f74206f776e65720000000000000000000000000000600082015250565b600061156a601283611491565b915061157582611534565b602082019050919050565b600060208201905081810360008301526115998161155d565b9050919050565b6115a9816113f7565b82525050565b60006040820190506115c460008301856115a0565b6115d160208301846113ad565b9392505050565b60008115159050919050565b6115ed816115d8565b81146115f857600080fd5b50565b60008151905061160a816115e4565b92915050565b600060208284031215611626576116256111b4565b5b6000611634848285016115fb565b91505092915050565b7f4e487b7100000000000000000000000000000000000000000000000000000000600052601160045260246000fd5b6000611677826111b9565b9150611682836111b9565b9250817fffffffffffffffffffffffffffffffffffffffffffffffffffffffffffffffff04831182151516156116bb576116ba61163d565b5b828202905092915050565b60006116d1826111b9565b91506116dc836111b9565b9250827fffffffffffffffffffffffffffffffffffffffffffffffffffffffffffffffff038211156117115761171061163d565b5b828201905092915050565b7f5374616b696e67206c6f636b6564000000000000000000000000000000000000600082015250565b6000611752600e83611491565b915061175d8261171c565b602082019050919050565b6000602082019050818103600083015261178181611745565b9050919050565b7f46697368646f6d5374616b696e673a204e6f74206f776e657200000000000000600082015250565b60006117be601983611491565b91506117c982611788565b602082019050919050565b600060208201905081810360008301526117ed816117b1565b9050919050565b600060408201905061180960008301856115a0565b61181660208301846115a0565b9392505050565b60008151905061182c816111c3565b92915050565b600060208284031215611848576118476111b4565b5b60006118568482850161181d565b91505092915050565b7f46697368646f6d5374616b696e673a204f76657220616c6c6f77616e63650000600082015250565b6000611895601e83611491565b91506118a08261185f565b602082019050919050565b600060208201905081810360008301526118c481611888565b9050919050565b60006060820190506118e060008301866115a0565b6118ed60208301856115a0565b6118fa60408301846113ad565b949350505050565b600060608201905061191760008301866113ad565b61192460208301856113ad565b61193160408301846113ad565b949350505050565b600063ffffffff82169050919050565b600061195482611939565b915061195f83611939565b9250828210156119725761197161163d565b5b828203905092915050565b7f4e487b7100000000000000000000000000000000000000000000000000000000600052601260045260246000fd5b60006119b7826111b9565b91506119c2836111b9565b9250826119d2576119d161197d565b5b82820490509291505056fea2646970667358221220fd32e7910e0303033ffc72fa6b7dbf320ed1076cdf8db5d4dcd252abce771ff364736f6c63430008090033","linkReferences":{},"deployedLinkReferences":{}}