{
  "_format": "hh-sol-artifact-1",
  "contractName": "FishdomStaking",
  "sourceName": "contracts/FishdomStaking.sol",
  "abi": [
    {
      "inputs": [
        {
          "internalType": "address",
          "name": "token_",
          "type": "address"
        }
      ],
      "stateMutability": "nonpayable",
      "type": "constructor"
    },
    {
      "anonymous": false,
      "inputs": [
        {
          "indexed": true,
          "internalType": "uint256",
          "name": "stakeId",
          "type": "uint256"
        },
        {
          "indexed": true,
          "internalType": "address",
          "name": "owner",
          "type": "address"
        },
        {
          "indexed": true,
          "internalType": "uint256",
          "name": "amount",
          "type": "uint256"
        }
      ],
      "name": "Claimed",
      "type": "event"
    },
    {
      "anonymous": false,
      "inputs": [
        {
          "indexed": true,
          "internalType": "uint256",
          "name": "stakeId",
          "type": "uint256"
        },
        {
          "indexed": true,
          "internalType": "address",
          "name": "owner",
          "type": "address"
        },
        {
          "indexed": false,
          "internalType": "uint256",
          "name": "amount",
          "type": "uint256"
        },
        {
          "indexed": false,
          "internalType": "uint256",
          "name": "duration",
          "type": "uint256"
        },
        {
          "indexed": false,
          "internalType": "uint256",
          "name": "apr",
          "type": "uint256"
        }
      ],
      "name": "Staked",
      "type": "event"
    },
    {
      "anonymous": false,
      "inputs": [
        {
          "indexed": true,
          "internalType": "uint256",
          "name": "stakeId",
          "type": "uint256"
        },
        {
          "indexed": true,
          "internalType": "address",
          "name": "owner",
          "type": "address"
        },
        {
          "indexed": false,
          "internalType": "uint256",
          "name": "claimed",
          "type": "uint256"
        }
      ],
      "name": "Unstaked",
      "type": "event"
    },
    {
      "inputs": [
        {
          "internalType": "uint256",
          "name": "_stakingId",
          "type": "uint256"
        }
      ],
      "name": "claim",
      "outputs": [],
      "stateMutability": "nonpayable",
      "type": "function"
    },
    {
      "inputs": [
        {
          "internalType": "uint256",
          "name": "stakingId",
          "type": "uint256"
        }
      ],
      "name": "getEarned",
      "outputs": [
        {
          "internalType": "uint256",
          "name": "",
          "type": "uint256"
        }
      ],
      "stateMutability": "view",
      "type": "function"
    },
    {
      "inputs": [],
      "name": "getListPackage",
      "outputs": [
        {
          "components": [
            {
              "internalType": "uint256",
              "name": "apr",
              "type": "uint256"
            },
            {
              "internalType": "uint256",
              "name": "duration",
              "type": "uint256"
            },
            {
              "internalType": "uint8",
              "name": "id",
              "type": "uint8"
            }
          ],
          "internalType": "struct FishdomStaking.Package[4]",
          "name": "",
          "type": "tuple[4]"
        }
      ],
      "stateMutability": "view",
      "type": "function"
    },
    {
      "inputs": [],
      "name": "initialize",
      "outputs": [],
      "stateMutability": "nonpayable",
      "type": "function"
    },
    {
      "inputs": [
        {
          "internalType": "uint8",
          "name": "_stakingId",
          "type": "uint8"
        },
        {
          "internalType": "uint256",
          "name": "_amount",
          "type": "uint256"
        }
      ],
      "name": "stake",
      "outputs": [],
      "stateMutability": "nonpayable",
      "type": "function"
    },
    {
      "inputs": [],
      "name": "totalStaked",
      "outputs": [
        {
          "internalType": "uint256",
          "name": "",
          "type": "uint256"
        }
      ],
      "stateMutability": "view",
      "type": "function"
    },
    {
      "inputs": [
        {
          "internalType": "address",
          "name": "newOwner",
          "type": "address"
        }
      ],
      "name": "transferOwnership",
      "outputs": [],
      "stateMutability": "nonpayable",
      "type": "function"
    },
    {
      "inputs": [
        {
          "internalType": "uint256",
          "name": "_stakingId",
          "type": "uint256"
        }
      ],
      "name": "unstake",
      "outputs": [],
      "stateMutability": "nonpayable",
      "type": "function"
    }
  ],
  "bytecode": "0x60806040523480156200001157600080fd5b5060405162001b8438038062001b8483398181016040528101906200003791906200012a565b80600160006101000a81548173ffffffffffffffffffffffffffffffffffffffff021916908373ffffffffffffffffffffffffffffffffffffffff16021790555033600260006101000a81548173ffffffffffffffffffffffffffffffffffffffff021916908373ffffffffffffffffffffffffffffffffffffffff160217905550506200015c565b600080fd5b600073ffffffffffffffffffffffffffffffffffffffff82169050919050565b6000620000f282620000c5565b9050919050565b6200010481620000e5565b81146200011057600080fd5b50565b6000815190506200012481620000f9565b92915050565b600060208284031215620001435762000142620000c0565b5b6000620001538482850162000113565b91505092915050565b611a18806200016c6000396000f3fe608060405234801561001057600080fd5b50600436106100885760003560e01c8063a96e588f1161005b578063a96e588f146100ed578063dd752e551461010b578063e938750414610127578063f2fde38b1461015757610088565b80632e17de781461008d578063379607f5146100a95780638129fc1c146100c5578063817b1cd2146100cf575b600080fd5b6100a760048036038101906100a29190611204565b610173565b005b6100c360048036038101906100be9190611204565b6104d7565b005b6100cd61085f565b005b6100d7610ad9565b6040516100e49190611240565b60405180910390f35b6100f5610adf565b6040516101029190611364565b60405180910390f35b610125600480360381019061012091906113ac565b610b61565b005b610141600480360381019061013c9190611204565b610ed7565b60405161014e9190611240565b60405180910390f35b610171600480360381019061016c919061144a565b610eeb565b005b60006003828154811061018957610188611477565b5b90600052602060002090600602016040518060c0016040529081600082015481526020016001820160009054906101000a900473ffffffffffffffffffffffffffffffffffffffff1673ffffffffffffffffffffffffffffffffffffffff1673ffffffffffffffffffffffffffffffffffffffff16815260200160028201548152602001600382015481526020016004820154815260200160058201548152505090506000816080015114610273576040517f08c379a000000000000000000000000000000000000000000000000000000000815260040161026a90611529565b60405180910390fd5b806020015173ffffffffffffffffffffffffffffffffffffffff163373ffffffffffffffffffffffffffffffffffffffff16146102e5576040517f08c379a00000000000000000000000000000000000000000000000000000000081526004016102dc90611595565b60405180910390fd5b60006102f2836001610fbf565b9050816060015160008082825461030991906115e4565b925050819055506003838154811061032457610323611477565b5b90600052602060002090600602016000808201600090556001820160006101000a81549073ffffffffffffffffffffffffffffffffffffffff0219169055600282016000905560038201600090556004820160009055600582016000905550503373ffffffffffffffffffffffffffffffffffffffff16837f37375b03d8924bd8f076f11f8411b9962aa5c02fb489021507bc6bb6f850e365836040516103cb9190611240565b60405180910390a360008111156104d257600160009054906101000a900473ffffffffffffffffffffffffffffffffffffffff1673ffffffffffffffffffffffffffffffffffffffff1663a9059cbb33836040518363ffffffff1660e01b8152600401610439929190611627565b602060405180830381600087803b15801561045357600080fd5b505af1158015610467573d6000803e3d6000fd5b505050506040513d601f19601f8201168201806040525081019061048b9190611688565b50803373ffffffffffffffffffffffffffffffffffffffff16847f4ec90e965519d92681267467f775ada5bd214aa92c0dc93d90a5e880ce9ed02660405160405180910390a45b505050565b6000600382815481106104ed576104ec611477565b5b90600052602060002090600602016040518060c0016040529081600082015481526020016001820160009054906101000a900473ffffffffffffffffffffffffffffffffffffffff1673ffffffffffffffffffffffffffffffffffffffff1673ffffffffffffffffffffffffffffffffffffffff1681526020016002820154815260200160038201548152602001600482015481526020016005820154815250509050806020015173ffffffffffffffffffffffffffffffffffffffff163373ffffffffffffffffffffffffffffffffffffffff1614610602576040517f08c379a00000000000000000000000000000000000000000000000000000000081526004016105f990611595565b60405180910390fd5b6000816040015190506000826080015190506000811461067c57610e10836080015161062e91906116b5565b82610639919061170f565b42101561067b576040517f08c379a0000000000000000000000000000000000000000000000000000000008152600401610672906117b1565b60405180910390fd5b5b6000610689856000610fbf565b9050600082146107285783606001516000808282546106a891906115e4565b92505081905550600385815481106106c3576106c2611477565b5b90600052602060002090600602016000808201600090556001820160006101000a81549073ffffffffffffffffffffffffffffffffffffffff021916905560028201600090556003820160009055600482016000905560058201600090555050610759565b4263ffffffff166003868154811061074357610742611477565b5b9060005260206000209060060201600201819055505b600081111561085857600160009054906101000a900473ffffffffffffffffffffffffffffffffffffffff1673ffffffffffffffffffffffffffffffffffffffff1663a9059cbb33836040518363ffffffff1660e01b81526004016107bf929190611627565b602060405180830381600087803b1580156107d957600080fd5b505af11580156107ed573d6000803e3d6000fd5b505050506040513d601f19601f820116820180604052508101906108119190611688565b50803373ffffffffffffffffffffffffffffffffffffffff16867f4ec90e965519d92681267467f775ada5bd214aa92c0dc93d90a5e880ce9ed02660405160405180910390a45b5050505050565b600260009054906101000a900473ffffffffffffffffffffffffffffffffffffffff1673ffffffffffffffffffffffffffffffffffffffff163373ffffffffffffffffffffffffffffffffffffffff16146108ef576040517f08c379a00000000000000000000000000000000000000000000000000000000081526004016108e69061181d565b60405180910390fd5b6064600460006004811061090657610905611477565b5b6003020160000181905550601e600460006004811061092857610927611477565b5b60030201600101819055506000600460006004811061094a57610949611477565b5b6003020160020160006101000a81548160ff021916908360ff160217905550608a60046001600481106109805761097f611477565b5b6003020160000181905550605a60046001600481106109a2576109a1611477565b5b6003020160010181905550600160046001600481106109c4576109c3611477565b5b6003020160020160006101000a81548160ff021916908360ff16021790555060dc60046002600481106109fa576109f9611477565b5b600302016000018190555060b46004600260048110610a1c57610a1b611477565b5b600302016001018190555060026004600260048110610a3e57610a3d611477565b5b6003020160020160006101000a81548160ff021916908360ff16021790555060056004600360048110610a7457610a73611477565b5b600302016000018190555060006004600360048110610a9657610a95611477565b5b600302016001018190555060036004600360048110610ab857610ab7611477565b5b6003020160020160006101000a81548160ff021916908360ff160217905550565b60005481565b610ae7611178565b60048080602002604051908101604052809291906000905b82821015610b585783826003020160405180606001604052908160008201548152602001600182015481526020016002820160009054906101000a900460ff1660ff1660ff168152505081526020019060010190610aff565b50505050905090565b600060048360ff1660048110610b7a57610b79611477565b5b6003020160405180606001604052908160008201548152602001600182015481526020016002820160009054906101000a900460ff1660ff1660ff168152505090506000600160009054906101000a900473ffffffffffffffffffffffffffffffffffffffff1673ffffffffffffffffffffffffffffffffffffffff1663dd62ed3e33306040518363ffffffff1660e01b8152600401610c1b92919061183d565b60206040518083038186803b158015610c3357600080fd5b505afa158015610c47573d6000803e3d6000fd5b505050506040513d601f19601f82011682018060405250810190610c6b919061187b565b905082811015610cb0576040517f08c379a0000000000000000000000000000000000000000000000000000000008152600401610ca7906118f4565b60405180910390fd5b600160009054906101000a900473ffffffffffffffffffffffffffffffffffffffff1673ffffffffffffffffffffffffffffffffffffffff166323b872dd3330866040518463ffffffff1660e01b8152600401610d0f93929190611914565b602060405180830381600087803b158015610d2957600080fd5b505af1158015610d3d573d6000803e3d6000fd5b505050506040513d601f19601f82011682018060405250810190610d619190611688565b5082600080828254610d73919061170f565b925050819055506000600380549050905060036040518060c001604052808381526020013373ffffffffffffffffffffffffffffffffffffffff16815260200142815260200186815260200185602001518152602001856000015181525090806001815401808255809150506001900390600052602060002090600602016000909190919091506000820151816000015560208201518160010160006101000a81548173ffffffffffffffffffffffffffffffffffffffff021916908373ffffffffffffffffffffffffffffffffffffffff16021790555060408201518160020155606082015181600301556080820151816004015560a0820151816005015550503373ffffffffffffffffffffffffffffffffffffffff16817f94f54bb48cedd45253f4ace35b1e25b1396407c5316b875feafaf710a8a1c48e8686602001518760000151604051610ec89392919061194b565b60405180910390a35050505050565b6000610ee4826001610fbf565b9050919050565b600260009054906101000a900473ffffffffffffffffffffffffffffffffffffffff1673ffffffffffffffffffffffffffffffffffffffff163373ffffffffffffffffffffffffffffffffffffffff1614610f7b576040517f08c379a0000000000000000000000000000000000000000000000000000000008152600401610f729061181d565b60405180910390fd5b80600260006101000a81548173ffffffffffffffffffffffffffffffffffffffff021916908373ffffffffffffffffffffffffffffffffffffffff16021790555050565b60008060038481548110610fd657610fd5611477565b5b90600052602060002090600602016040518060c0016040529081600082015481526020016001820160009054906101000a900473ffffffffffffffffffffffffffffffffffffffff1673ffffffffffffffffffffffffffffffffffffffff1673ffffffffffffffffffffffffffffffffffffffff168152602001600282015481526020016003820154815260200160048201548152602001600582015481525050905060008160a00151905060008260800151141561111b576000620151808360400151426110a591906115e4565b6110af91906119b1565b90506000601e600c6064848688606001516110ca91906116b5565b6110d491906116b5565b6110de91906119b1565b6110e891906119b1565b6110f291906119b1565b9050856110ff5780611110565b80846060015161110f919061170f565b5b945050505050611172565b600c601e6064838560600151866080015161113691906116b5565b61114091906116b5565b61114a91906119b1565b61115491906119b1565b61115e91906119b1565b826060015161116d919061170f565b925050505b92915050565b60405180608001604052806004905b61118f6111a5565b8152602001906001900390816111875790505090565b60405180606001604052806000815260200160008152602001600060ff1681525090565b600080fd5b6000819050919050565b6111e1816111ce565b81146111ec57600080fd5b50565b6000813590506111fe816111d8565b92915050565b60006020828403121561121a576112196111c9565b5b6000611228848285016111ef565b91505092915050565b61123a816111ce565b82525050565b60006020820190506112556000830184611231565b92915050565b600060049050919050565b600081905092915050565b6000819050919050565b611284816111ce565b82525050565b600060ff82169050919050565b6112a08161128a565b82525050565b6060820160008201516112bc600085018261127b565b5060208201516112cf602085018261127b565b5060408201516112e26040850182611297565b50505050565b60006112f483836112a6565b60608301905092915050565b6000602082019050919050565b6113168161125b565b6113208184611266565b925061132b82611271565b8060005b8381101561135c57815161134387826112e8565b965061134e83611300565b92505060018101905061132f565b505050505050565b60006101808201905061137a600083018461130d565b92915050565b6113898161128a565b811461139457600080fd5b50565b6000813590506113a681611380565b92915050565b600080604083850312156113c3576113c26111c9565b5b60006113d185828601611397565b92505060206113e2858286016111ef565b9150509250929050565b600073ffffffffffffffffffffffffffffffffffffffff82169050919050565b6000611417826113ec565b9050919050565b6114278161140c565b811461143257600080fd5b50565b6000813590506114448161141e565b92915050565b6000602082840312156114605761145f6111c9565b5b600061146e84828501611435565b91505092915050565b7f4e487b7100000000000000000000000000000000000000000000000000000000600052603260045260246000fd5b600082825260208201905092915050565b7f43616e6e6f7420756e7374616b65206669786564207374616b696e672070616360008201527f6b61676500000000000000000000000000000000000000000000000000000000602082015250565b60006115136024836114a6565b915061151e826114b7565b604082019050919050565b6000602082019050818103600083015261154281611506565b9050919050565b7f4f776e61626c653a204e6f74206f776e65720000000000000000000000000000600082015250565b600061157f6012836114a6565b915061158a82611549565b602082019050919050565b600060208201905081810360008301526115ae81611572565b9050919050565b7f4e487b7100000000000000000000000000000000000000000000000000000000600052601160045260246000fd5b60006115ef826111ce565b91506115fa836111ce565b92508282101561160d5761160c6115b5565b5b828203905092915050565b6116218161140c565b82525050565b600060408201905061163c6000830185611618565b6116496020830184611231565b9392505050565b60008115159050919050565b61166581611650565b811461167057600080fd5b50565b6000815190506116828161165c565b92915050565b60006020828403121561169e5761169d6111c9565b5b60006116ac84828501611673565b91505092915050565b60006116c0826111ce565b91506116cb836111ce565b9250817fffffffffffffffffffffffffffffffffffffffffffffffffffffffffffffffff0483118215151615611704576117036115b5565b5b828202905092915050565b600061171a826111ce565b9150611725836111ce565b9250827fffffffffffffffffffffffffffffffffffffffffffffffffffffffffffffffff0382111561175a576117596115b5565b5b828201905092915050565b7f5374616b696e67206c6f636b6564000000000000000000000000000000000000600082015250565b600061179b600e836114a6565b91506117a682611765565b602082019050919050565b600060208201905081810360008301526117ca8161178e565b9050919050565b7f46697368646f6d5374616b696e673a204e6f74206f776e657200000000000000600082015250565b60006118076019836114a6565b9150611812826117d1565b602082019050919050565b60006020820190508181036000830152611836816117fa565b9050919050565b60006040820190506118526000830185611618565b61185f6020830184611618565b9392505050565b600081519050611875816111d8565b92915050565b600060208284031215611891576118906111c9565b5b600061189f84828501611866565b91505092915050565b7f46697368646f6d5374616b696e673a204f76657220616c6c6f77616e63650000600082015250565b60006118de601e836114a6565b91506118e9826118a8565b602082019050919050565b6000602082019050818103600083015261190d816118d1565b9050919050565b60006060820190506119296000830186611618565b6119366020830185611618565b6119436040830184611231565b949350505050565b60006060820190506119606000830186611231565b61196d6020830185611231565b61197a6040830184611231565b949350505050565b7f4e487b7100000000000000000000000000000000000000000000000000000000600052601260045260246000fd5b60006119bc826111ce565b91506119c7836111ce565b9250826119d7576119d6611982565b5b82820490509291505056fea26469706673582212201c7e3b5c562b7089da3aaf5e97d1ec7eabf52a9048ff370f6220a8c316500fb664736f6c63430008090033",
  "linkReferences": {},
  "deployedLinkReferences": {}
}