{
  "_format": "hh-sol-artifact-1",
  "contractName": "FishdomMarket",
  "sourceName": "contracts/FishdomMarket.sol",
  "abi": [
    {
      "inputs": [
        {
          "internalType": "address",
          "name": "token_",
          "type": "address"
        },
        {
          "internalType": "address",
          "name": "nft_",
          "type": "address"
        }
      ],
      "stateMutability": "nonpayable",
      "type": "constructor"
    },
    {
      "anonymous": false,
      "inputs": [
        {
          "indexed": true,
          "internalType": "uint256",
          "name": "itemId",
          "type": "uint256"
        },
        {
          "indexed": true,
          "internalType": "uint256",
          "name": "tokenId",
          "type": "uint256"
        },
        {
          "indexed": false,
          "internalType": "uint256",
          "name": "price",
          "type": "uint256"
        },
        {
          "indexed": false,
          "internalType": "address",
          "name": "seller",
          "type": "address"
        },
        {
          "indexed": false,
          "internalType": "address",
          "name": "buyer",
          "type": "address"
        }
      ],
      "name": "BuyMarketItem",
      "type": "event"
    },
    {
      "anonymous": false,
      "inputs": [
        {
          "indexed": true,
          "internalType": "uint256",
          "name": "itemId",
          "type": "uint256"
        },
        {
          "indexed": true,
          "internalType": "uint256",
          "name": "tokenId",
          "type": "uint256"
        },
        {
          "indexed": false,
          "internalType": "address",
          "name": "seller",
          "type": "address"
        },
        {
          "indexed": false,
          "internalType": "uint256",
          "name": "price",
          "type": "uint256"
        }
      ],
      "name": "MarketItemCreated",
      "type": "event"
    },
    {
      "anonymous": false,
      "inputs": [
        {
          "indexed": true,
          "internalType": "uint256",
          "name": "itemId",
          "type": "uint256"
        },
        {
          "indexed": true,
          "internalType": "uint256",
          "name": "tokenId",
          "type": "uint256"
        },
        {
          "indexed": false,
          "internalType": "address",
          "name": "owner",
          "type": "address"
        }
      ],
      "name": "WithdrawItem",
      "type": "event"
    },
    {
      "inputs": [
        {
          "internalType": "uint256",
          "name": "itemIndex",
          "type": "uint256"
        }
      ],
      "name": "buyMarketItem",
      "outputs": [],
      "stateMutability": "nonpayable",
      "type": "function"
    },
    {
      "inputs": [
        {
          "internalType": "uint256",
          "name": "tokenId",
          "type": "uint256"
        },
        {
          "internalType": "uint256",
          "name": "price",
          "type": "uint256"
        }
      ],
      "name": "createMarketItem",
      "outputs": [],
      "stateMutability": "nonpayable",
      "type": "function"
    },
    {
      "inputs": [
        {
          "internalType": "address",
          "name": "",
          "type": "address"
        },
        {
          "internalType": "address",
          "name": "",
          "type": "address"
        },
        {
          "internalType": "uint256",
          "name": "",
          "type": "uint256"
        },
        {
          "internalType": "bytes",
          "name": "",
          "type": "bytes"
        }
      ],
      "name": "onERC721Received",
      "outputs": [
        {
          "internalType": "bytes4",
          "name": "",
          "type": "bytes4"
        }
      ],
      "stateMutability": "nonpayable",
      "type": "function"
    },
    {
      "inputs": [
        {
          "internalType": "address",
          "name": "nft",
          "type": "address"
        }
      ],
      "name": "setNFT",
      "outputs": [],
      "stateMutability": "nonpayable",
      "type": "function"
    },
    {
      "inputs": [
        {
          "internalType": "address",
          "name": "token",
          "type": "address"
        }
      ],
      "name": "setToken",
      "outputs": [],
      "stateMutability": "nonpayable",
      "type": "function"
    },
    {
      "inputs": [
        {
          "internalType": "address",
          "name": "newOwner",
          "type": "address"
        }
      ],
      "name": "transferOwnership",
      "outputs": [],
      "stateMutability": "nonpayable",
      "type": "function"
    },
    {
      "inputs": [
        {
          "internalType": "uint256",
          "name": "itemId",
          "type": "uint256"
        }
      ],
      "name": "withdrawNFT",
      "outputs": [],
      "stateMutability": "nonpayable",
      "type": "function"
    }
  ],
  "bytecode": "0x60806040523480156200001157600080fd5b50604051620018b4380380620018b483398181016040528101906200003791906200016c565b33600160006101000a81548173ffffffffffffffffffffffffffffffffffffffff021916908373ffffffffffffffffffffffffffffffffffffffff16021790555081600360006101000a81548173ffffffffffffffffffffffffffffffffffffffff021916908373ffffffffffffffffffffffffffffffffffffffff16021790555080600260006101000a81548173ffffffffffffffffffffffffffffffffffffffff021916908373ffffffffffffffffffffffffffffffffffffffff1602179055505050620001b3565b600080fd5b600073ffffffffffffffffffffffffffffffffffffffff82169050919050565b6000620001348262000107565b9050919050565b620001468162000127565b81146200015257600080fd5b50565b60008151905062000166816200013b565b92915050565b6000806040838503121562000186576200018562000102565b5b6000620001968582860162000155565b9250506020620001a98582860162000155565b9150509250929050565b6116f180620001c36000396000f3fe608060405234801561001057600080fd5b506004361061007d5760003560e01c8063351901c31161005b578063351901c3146100ea578063361c199514610106578063f2fde38b14610122578063f56e9c661461013e5761007d565b8063023245d714610082578063144fa6d71461009e578063150b7a02146100ba575b600080fd5b61009c60048036038101906100979190610db6565b61015a565b005b6100b860048036038101906100b39190610e41565b6103c7565b005b6100d460048036038101906100cf9190610fb4565b610479565b6040516100e19190611072565b60405180910390f35b61010460048036038101906100ff9190610db6565b61048d565b005b610120600480360381019061011b919061108d565b610a06565b005b61013c60048036038101906101379190610e41565b610be4565b005b61015860048036038101906101539190610e41565b610c96565b005b60006004600083815260200190815260200160002060405180608001604052908160008201548152602001600182015481526020016002820160009054906101000a900473ffffffffffffffffffffffffffffffffffffffff1673ffffffffffffffffffffffffffffffffffffffff1673ffffffffffffffffffffffffffffffffffffffff16815260200160038201548152505090503373ffffffffffffffffffffffffffffffffffffffff166004600084815260200190815260200160002060020160009054906101000a900473ffffffffffffffffffffffffffffffffffffffff1673ffffffffffffffffffffffffffffffffffffffff1614610294576040517f08c379a000000000000000000000000000000000000000000000000000000000815260040161028b9061112a565b60405180910390fd5b6004600083815260200190815260200160002060008082016000905560018201600090556002820160006101000a81549073ffffffffffffffffffffffffffffffffffffffff021916905560038201600090555050600260009054906101000a900473ffffffffffffffffffffffffffffffffffffffff1673ffffffffffffffffffffffffffffffffffffffff166323b872dd303384602001516040518463ffffffff1660e01b815260040161034c93929190611168565b600060405180830381600087803b15801561036657600080fd5b505af115801561037a573d6000803e3d6000fd5b50505050806020015181600001517ff14a9cbe01fc845847526300acd057416c171aa3034b4ea54f4f1a412c284a7183604001516040516103bb919061119f565b60405180910390a35050565b3373ffffffffffffffffffffffffffffffffffffffff163373ffffffffffffffffffffffffffffffffffffffff1614610435576040517f08c379a000000000000000000000000000000000000000000000000000000000815260040161042c9061112a565b60405180910390fd5b80600360006101000a81548173ffffffffffffffffffffffffffffffffffffffff021916908373ffffffffffffffffffffffffffffffffffffffff16021790555050565b600063150b7a0260e01b9050949350505050565b60006004600083815260200190815260200160002060405180608001604052908160008201548152602001600182015481526020016002820160009054906101000a900473ffffffffffffffffffffffffffffffffffffffff1673ffffffffffffffffffffffffffffffffffffffff1673ffffffffffffffffffffffffffffffffffffffff16815260200160038201548152505090503373ffffffffffffffffffffffffffffffffffffffff16816040015173ffffffffffffffffffffffffffffffffffffffff161415610596576040517f08c379a000000000000000000000000000000000000000000000000000000000815260040161058d90611206565b60405180910390fd5b6000816060015190506000600360009054906101000a900473ffffffffffffffffffffffffffffffffffffffff1673ffffffffffffffffffffffffffffffffffffffff1663dd62ed3e33306040518363ffffffff1660e01b81526004016105fe929190611226565b60206040518083038186803b15801561061657600080fd5b505afa15801561062a573d6000803e3d6000fd5b505050506040513d601f19601f8201168201806040525081019061064e9190611264565b905081811015610693576040517f08c379a000000000000000000000000000000000000000000000000000000000815260040161068a90611329565b60405180910390fd5b600060646005846106a49190611378565b6106ae9190611401565b90506000846020015190506000600360009054906101000a900473ffffffffffffffffffffffffffffffffffffffff1673ffffffffffffffffffffffffffffffffffffffff166323b872dd338860400151868961070b9190611432565b6040518463ffffffff1660e01b815260040161072993929190611168565b602060405180830381600087803b15801561074357600080fd5b505af1158015610757573d6000803e3d6000fd5b505050506040513d601f19601f8201168201806040525081019061077b919061149e565b9050806107bd576040517f08c379a00000000000000000000000000000000000000000000000000000000081526004016107b49061153d565b60405180910390fd5b600360009054906101000a900473ffffffffffffffffffffffffffffffffffffffff1673ffffffffffffffffffffffffffffffffffffffff166323b872dd33600160009054906101000a900473ffffffffffffffffffffffffffffffffffffffff16866040518463ffffffff1660e01b815260040161083e93929190611168565b602060405180830381600087803b15801561085857600080fd5b505af115801561086c573d6000803e3d6000fd5b505050506040513d601f19601f82011682018060405250810190610890919061149e565b9050806108d2576040517f08c379a00000000000000000000000000000000000000000000000000000000081526004016108c9906115cf565b60405180910390fd5b6004600088815260200190815260200160002060008082016000905560018201600090556002820160006101000a81549073ffffffffffffffffffffffffffffffffffffffff021916905560038201600090555050600260009054906101000a900473ffffffffffffffffffffffffffffffffffffffff1673ffffffffffffffffffffffffffffffffffffffff166323b872dd3033856040518463ffffffff1660e01b815260040161098693929190611168565b600060405180830381600087803b1580156109a057600080fd5b505af11580156109b4573d6000803e3d6000fd5b505050508186600001517f86b0e3b3db9ee39518dd8833acf9b575af93ec2a7828d1d027f5405903edbb97878960400151336040516109f5939291906115ef565b60405180910390a350505050505050565b60008111610a49576040517f08c379a0000000000000000000000000000000000000000000000000000000008152600401610a4090611672565b60405180910390fd5b600260009054906101000a900473ffffffffffffffffffffffffffffffffffffffff1673ffffffffffffffffffffffffffffffffffffffff166323b872dd3330856040518463ffffffff1660e01b8152600401610aa893929190611168565b600060405180830381600087803b158015610ac257600080fd5b505af1158015610ad6573d6000803e3d6000fd5b50505050610ae46000610d48565b6000610af06000610d5e565b905060405180608001604052808281526020018481526020013373ffffffffffffffffffffffffffffffffffffffff1681526020018381525060046000838152602001908152602001600020600082015181600001556020820151816001015560408201518160020160006101000a81548173ffffffffffffffffffffffffffffffffffffffff021916908373ffffffffffffffffffffffffffffffffffffffff1602179055506060820151816003015590505082817fdc9d79b0fe2198ceff7f76af9e05e2eacb3af07f0d4c913397475ab8bac771b83385604051610bd7929190611692565b60405180910390a3505050565b3373ffffffffffffffffffffffffffffffffffffffff163373ffffffffffffffffffffffffffffffffffffffff1614610c52576040517f08c379a0000000000000000000000000000000000000000000000000000000008152600401610c499061112a565b60405180910390fd5b80600160006101000a81548173ffffffffffffffffffffffffffffffffffffffff021916908373ffffffffffffffffffffffffffffffffffffffff16021790555050565b3373ffffffffffffffffffffffffffffffffffffffff163373ffffffffffffffffffffffffffffffffffffffff1614610d04576040517f08c379a0000000000000000000000000000000000000000000000000000000008152600401610cfb9061112a565b60405180910390fd5b80600260006101000a81548173ffffffffffffffffffffffffffffffffffffffff021916908373ffffffffffffffffffffffffffffffffffffffff16021790555050565b6001816000016000828254019250508190555050565b600081600001549050919050565b6000604051905090565b600080fd5b600080fd5b6000819050919050565b610d9381610d80565b8114610d9e57600080fd5b50565b600081359050610db081610d8a565b92915050565b600060208284031215610dcc57610dcb610d76565b5b6000610dda84828501610da1565b91505092915050565b600073ffffffffffffffffffffffffffffffffffffffff82169050919050565b6000610e0e82610de3565b9050919050565b610e1e81610e03565b8114610e2957600080fd5b50565b600081359050610e3b81610e15565b92915050565b600060208284031215610e5757610e56610d76565b5b6000610e6584828501610e2c565b91505092915050565b600080fd5b600080fd5b6000601f19601f8301169050919050565b7f4e487b7100000000000000000000000000000000000000000000000000000000600052604160045260246000fd5b610ec182610e78565b810181811067ffffffffffffffff82111715610ee057610edf610e89565b5b80604052505050565b6000610ef3610d6c565b9050610eff8282610eb8565b919050565b600067ffffffffffffffff821115610f1f57610f1e610e89565b5b610f2882610e78565b9050602081019050919050565b82818337600083830152505050565b6000610f57610f5284610f04565b610ee9565b905082815260208101848484011115610f7357610f72610e73565b5b610f7e848285610f35565b509392505050565b600082601f830112610f9b57610f9a610e6e565b5b8135610fab848260208601610f44565b91505092915050565b60008060008060808587031215610fce57610fcd610d76565b5b6000610fdc87828801610e2c565b9450506020610fed87828801610e2c565b9350506040610ffe87828801610da1565b925050606085013567ffffffffffffffff81111561101f5761101e610d7b565b5b61102b87828801610f86565b91505092959194509250565b60007fffffffff0000000000000000000000000000000000000000000000000000000082169050919050565b61106c81611037565b82525050565b60006020820190506110876000830184611063565b92915050565b600080604083850312156110a4576110a3610d76565b5b60006110b285828601610da1565b92505060206110c385828601610da1565b9150509250929050565b600082825260208201905092915050565b7f46697368646f6d4d61726b65743a204e6f74206f776e65720000000000000000600082015250565b60006111146018836110cd565b915061111f826110de565b602082019050919050565b6000602082019050818103600083015261114381611107565b9050919050565b61115381610e03565b82525050565b61116281610d80565b82525050565b600060608201905061117d600083018661114a565b61118a602083018561114a565b6111976040830184611159565b949350505050565b60006020820190506111b4600083018461114a565b92915050565b7f43616e206e6f742062757920796f7572206974656d0000000000000000000000600082015250565b60006111f06015836110cd565b91506111fb826111ba565b602082019050919050565b6000602082019050818103600083015261121f816111e3565b9050919050565b600060408201905061123b600083018561114a565b611248602083018461114a565b9392505050565b60008151905061125e81610d8a565b92915050565b60006020828403121561127a57611279610d76565b5b60006112888482850161124f565b91505092915050565b7f46697368646f6d4d61726b65743a20506c65617365207375626d69742074686560008201527f2061736b696e6720707269636520696e206f7264657220746f20636f6d706c6560208201527f7465207468652070757263686173650000000000000000000000000000000000604082015250565b6000611313604f836110cd565b915061131e82611291565b606082019050919050565b6000602082019050818103600083015261134281611306565b9050919050565b7f4e487b7100000000000000000000000000000000000000000000000000000000600052601160045260246000fd5b600061138382610d80565b915061138e83610d80565b9250817fffffffffffffffffffffffffffffffffffffffffffffffffffffffffffffffff04831182151516156113c7576113c6611349565b5b828202905092915050565b7f4e487b7100000000000000000000000000000000000000000000000000000000600052601260045260246000fd5b600061140c82610d80565b915061141783610d80565b925082611427576114266113d2565b5b828204905092915050565b600061143d82610d80565b915061144883610d80565b92508282101561145b5761145a611349565b5b828203905092915050565b60008115159050919050565b61147b81611466565b811461148657600080fd5b50565b60008151905061149881611472565b92915050565b6000602082840312156114b4576114b3610d76565b5b60006114c284828501611489565b91505092915050565b7f46697368646f6d4d61726b65743a205472616e736665722046697368646f6d5460008201527f6f6b656e20746f2073656c6c6572206661696c65640000000000000000000000602082015250565b60006115276035836110cd565b9150611532826114cb565b604082019050919050565b600060208201905081810360008301526115568161151a565b9050919050565b7f46697368646f6d4d61726b65743a205472616e7366657220746178206665652060008201527f6661696c65640000000000000000000000000000000000000000000000000000602082015250565b60006115b96026836110cd565b91506115c48261155d565b604082019050919050565b600060208201905081810360008301526115e8816115ac565b9050919050565b60006060820190506116046000830186611159565b611611602083018561114a565b61161e604083018461114a565b949350505050565b7f5072696365206d757374206265206174206c6561737420312077656900000000600082015250565b600061165c601c836110cd565b915061166782611626565b602082019050919050565b6000602082019050818103600083015261168b8161164f565b9050919050565b60006040820190506116a7600083018561114a565b6116b46020830184611159565b939250505056fea26469706673582212204ed407e2eb15dbe50a5314096f0a015930bfcea9a6ef485e197305abf404cbff64736f6c63430008090033",
  "linkReferences": {},
  "deployedLinkReferences": {}
}