{
  "_format": "hh-sol-artifact-1",
  "contractName": "ReNFT",
  "sourceName": "contracts/rentNFT/ReNFT.sol",
  "abi": [
    {
      "inputs": [
        {
          "internalType": "address",
          "name": "_resolver",
          "type": "address"
        },
        {
          "internalType": "address payable",
          "name": "_beneficiary",
          "type": "address"
        },
        {
          "internalType": "address",
          "name": "_admin",
          "type": "address"
        }
      ],
      "stateMutability": "nonpayable",
      "type": "constructor"
    },
    {
      "anonymous": false,
      "inputs": [
        {
          "indexed": true,
          "internalType": "uint256",
          "name": "lendingId",
          "type": "uint256"
        },
        {
          "indexed": false,
          "internalType": "uint32",
          "name": "claimedAt",
          "type": "uint32"
        }
      ],
      "name": "CollateralClaimed",
      "type": "event"
    },
    {
      "anonymous": false,
      "inputs": [
        {
          "indexed": true,
          "internalType": "uint256",
          "name": "lendingId",
          "type": "uint256"
        },
        {
          "indexed": false,
          "internalType": "uint32",
          "name": "stoppedAt",
          "type": "uint32"
        }
      ],
      "name": "LendingStopped",
      "type": "event"
    },
    {
      "anonymous": false,
      "inputs": [
        {
          "indexed": true,
          "internalType": "address",
          "name": "nftAddress",
          "type": "address"
        },
        {
          "indexed": true,
          "internalType": "uint256",
          "name": "tokenId",
          "type": "uint256"
        },
        {
          "indexed": false,
          "internalType": "uint8",
          "name": "lentAmount",
          "type": "uint8"
        },
        {
          "indexed": false,
          "internalType": "uint256",
          "name": "lendingId",
          "type": "uint256"
        },
        {
          "indexed": true,
          "internalType": "address",
          "name": "lenderAddress",
          "type": "address"
        },
        {
          "indexed": false,
          "internalType": "uint8",
          "name": "maxRentDuration",
          "type": "uint8"
        },
        {
          "indexed": false,
          "internalType": "bytes4",
          "name": "dailyRentPrice",
          "type": "bytes4"
        },
        {
          "indexed": false,
          "internalType": "bytes4",
          "name": "nftPrice",
          "type": "bytes4"
        },
        {
          "indexed": false,
          "internalType": "bool",
          "name": "isERC721",
          "type": "bool"
        },
        {
          "indexed": false,
          "internalType": "string",
          "name": "paymentToken",
          "type": "string"
        }
      ],
      "name": "Lent",
      "type": "event"
    },
    {
      "anonymous": false,
      "inputs": [
        {
          "indexed": false,
          "internalType": "uint256",
          "name": "lendingId",
          "type": "uint256"
        },
        {
          "indexed": true,
          "internalType": "address",
          "name": "renterAddress",
          "type": "address"
        },
        {
          "indexed": false,
          "internalType": "uint8",
          "name": "rentDuration",
          "type": "uint8"
        },
        {
          "indexed": false,
          "internalType": "uint32",
          "name": "rentedAt",
          "type": "uint32"
        }
      ],
      "name": "Rented",
      "type": "event"
    },
    {
      "anonymous": false,
      "inputs": [
        {
          "indexed": true,
          "internalType": "uint256",
          "name": "lendingId",
          "type": "uint256"
        },
        {
          "indexed": false,
          "internalType": "uint32",
          "name": "returnedAt",
          "type": "uint32"
        }
      ],
      "name": "Returned",
      "type": "event"
    },
    {
      "inputs": [
        {
          "internalType": "address",
          "name": "_nft",
          "type": "address"
        },
        {
          "internalType": "uint256",
          "name": "_tokenId",
          "type": "uint256"
        },
        {
          "internalType": "uint256",
          "name": "_lendingId",
          "type": "uint256"
        }
      ],
      "name": "claimCollateral",
      "outputs": [],
      "stateMutability": "nonpayable",
      "type": "function"
    },
    {
      "inputs": [
        {
          "internalType": "address",
          "name": "_nft",
          "type": "address"
        },
        {
          "internalType": "uint256",
          "name": "_tokenId",
          "type": "uint256"
        },
        {
          "internalType": "uint256",
          "name": "_lendAmount",
          "type": "uint256"
        },
        {
          "internalType": "uint8",
          "name": "_maxRentDuration",
          "type": "uint8"
        },
        {
          "internalType": "bytes4",
          "name": "_dailyRentPrice",
          "type": "bytes4"
        },
        {
          "internalType": "bytes4",
          "name": "_nftPrice",
          "type": "bytes4"
        },
        {
          "internalType": "string",
          "name": "_paymentToken",
          "type": "string"
        }
      ],
      "name": "lend",
      "outputs": [],
      "stateMutability": "nonpayable",
      "type": "function"
    },
    {
      "inputs": [
        {
          "internalType": "address",
          "name": "",
          "type": "address"
        },
        {
          "internalType": "address",
          "name": "",
          "type": "address"
        },
        {
          "internalType": "uint256[]",
          "name": "",
          "type": "uint256[]"
        },
        {
          "internalType": "uint256[]",
          "name": "",
          "type": "uint256[]"
        },
        {
          "internalType": "bytes",
          "name": "",
          "type": "bytes"
        }
      ],
      "name": "onERC1155BatchReceived",
      "outputs": [
        {
          "internalType": "bytes4",
          "name": "",
          "type": "bytes4"
        }
      ],
      "stateMutability": "nonpayable",
      "type": "function"
    },
    {
      "inputs": [
        {
          "internalType": "address",
          "name": "",
          "type": "address"
        },
        {
          "internalType": "address",
          "name": "",
          "type": "address"
        },
        {
          "internalType": "uint256",
          "name": "",
          "type": "uint256"
        },
        {
          "internalType": "uint256",
          "name": "",
          "type": "uint256"
        },
        {
          "internalType": "bytes",
          "name": "",
          "type": "bytes"
        }
      ],
      "name": "onERC1155Received",
      "outputs": [
        {
          "internalType": "bytes4",
          "name": "",
          "type": "bytes4"
        }
      ],
      "stateMutability": "nonpayable",
      "type": "function"
    },
    {
      "inputs": [
        {
          "internalType": "address",
          "name": "",
          "type": "address"
        },
        {
          "internalType": "address",
          "name": "",
          "type": "address"
        },
        {
          "internalType": "uint256",
          "name": "",
          "type": "uint256"
        },
        {
          "internalType": "bytes",
          "name": "",
          "type": "bytes"
        }
      ],
      "name": "onERC721Received",
      "outputs": [
        {
          "internalType": "bytes4",
          "name": "",
          "type": "bytes4"
        }
      ],
      "stateMutability": "nonpayable",
      "type": "function"
    },
    {
      "inputs": [],
      "name": "paused",
      "outputs": [
        {
          "internalType": "bool",
          "name": "",
          "type": "bool"
        }
      ],
      "stateMutability": "view",
      "type": "function"
    },
    {
      "inputs": [
        {
          "internalType": "address",
          "name": "_nft",
          "type": "address"
        },
        {
          "internalType": "uint256",
          "name": "_tokenId",
          "type": "uint256"
        },
        {
          "internalType": "uint256",
          "name": "_lendingId",
          "type": "uint256"
        },
        {
          "internalType": "uint8",
          "name": "_rentDuration",
          "type": "uint8"
        }
      ],
      "name": "rent",
      "outputs": [],
      "stateMutability": "nonpayable",
      "type": "function"
    },
    {
      "inputs": [],
      "name": "rentFee",
      "outputs": [
        {
          "internalType": "uint256",
          "name": "",
          "type": "uint256"
        }
      ],
      "stateMutability": "view",
      "type": "function"
    },
    {
      "inputs": [
        {
          "internalType": "address",
          "name": "_nft",
          "type": "address"
        },
        {
          "internalType": "uint256",
          "name": "_tokenId",
          "type": "uint256"
        },
        {
          "internalType": "uint256",
          "name": "_lendingId",
          "type": "uint256"
        }
      ],
      "name": "returnIt",
      "outputs": [],
      "stateMutability": "nonpayable",
      "type": "function"
    },
    {
      "inputs": [
        {
          "internalType": "address payable",
          "name": "_newBeneficiary",
          "type": "address"
        }
      ],
      "name": "setBeneficiary",
      "outputs": [],
      "stateMutability": "nonpayable",
      "type": "function"
    },
    {
      "inputs": [
        {
          "internalType": "bool",
          "name": "_paused",
          "type": "bool"
        }
      ],
      "name": "setPaused",
      "outputs": [],
      "stateMutability": "nonpayable",
      "type": "function"
    },
    {
      "inputs": [
        {
          "internalType": "uint256",
          "name": "_rentFee",
          "type": "uint256"
        }
      ],
      "name": "setRentFee",
      "outputs": [],
      "stateMutability": "nonpayable",
      "type": "function"
    },
    {
      "inputs": [
        {
          "internalType": "address",
          "name": "_nft",
          "type": "address"
        },
        {
          "internalType": "uint256",
          "name": "_tokenId",
          "type": "uint256"
        },
        {
          "internalType": "uint256",
          "name": "_lendingId",
          "type": "uint256"
        }
      ],
      "name": "stopLending",
      "outputs": [],
      "stateMutability": "nonpayable",
      "type": "function"
    },
    {
      "inputs": [
        {
          "internalType": "bytes4",
          "name": "interfaceId",
          "type": "bytes4"
        }
      ],
      "name": "supportsInterface",
      "outputs": [
        {
          "internalType": "bool",
          "name": "",
          "type": "bool"
        }
      ],
      "stateMutability": "view",
      "type": "function"
    }
  ],
  "bytecode": "0x608060405260016003556000600460006101000a81548160ff02191690831515021790555060006005553480156200003657600080fd5b50604051620062c3380380620062c383398181016040528101906200005c91906200027f565b6200006d836200015a60201b60201c565b6200007e826200015a60201b60201c565b6200008f816200015a60201b60201c565b826000806101000a81548173ffffffffffffffffffffffffffffffffffffffff021916908373ffffffffffffffffffffffffffffffffffffffff16021790555081600260006101000a81548173ffffffffffffffffffffffffffffffffffffffff021916908373ffffffffffffffffffffffffffffffffffffffff16021790555080600160006101000a81548173ffffffffffffffffffffffffffffffffffffffff021916908373ffffffffffffffffffffffffffffffffffffffff1602179055505050506200035e565b600073ffffffffffffffffffffffffffffffffffffffff168173ffffffffffffffffffffffffffffffffffffffff161415620001cd576040517f08c379a0000000000000000000000000000000000000000000000000000000008152600401620001c4906200033c565b60405180910390fd5b50565b600080fd5b600073ffffffffffffffffffffffffffffffffffffffff82169050919050565b60006200020282620001d5565b9050919050565b6200021481620001f5565b81146200022057600080fd5b50565b600081519050620002348162000209565b92915050565b60006200024782620001d5565b9050919050565b62000259816200023a565b81146200026557600080fd5b50565b60008151905062000279816200024e565b92915050565b6000806000606084860312156200029b576200029a620001d0565b5b6000620002ab8682870162000223565b9350506020620002be8682870162000268565b9250506040620002d18682870162000223565b9150509250925092565b600082825260208201905092915050565b7f52654e46543a3a7a65726f206164647265737300000000000000000000000000600082015250565b600062000324601383620002db565b91506200033182620002ec565b602082019050919050565b60006020820190508181036000830152620003578162000315565b9050919050565b615f55806200036e6000396000f3fe608060405234801561001057600080fd5b50600436106100ea5760003560e01c80638f0862901161008c578063cb94db2811610066578063cb94db2814610247578063e677148714610263578063e7c8f0e21461027f578063f23a6e611461029b576100ea565b80638f086290146101dd578063bc197c81146101f9578063bf2b23ea14610229576100ea565b80631c31f710116100c85780631c31f7101461016b5780634ef99b13146101875780635c975abb146101a357806376774ea3146101c1576100ea565b806301ffc9a7146100ef578063150b7a021461011f57806316c38b3c1461014f575b600080fd5b61010960048036038101906101049190614131565b6102cb565b6040516101169190614179565b60405180910390f35b6101396004803603810190610134919061436e565b610345565b6040516101469190614400565b60405180910390f35b61016960048036038101906101649190614447565b610359565b005b610185600480360381019061018091906144b2565b610406565b005b6101a1600480360381019061019c91906144df565b6104da565b005b6101ab6104f5565b6040516101b89190614179565b60405180910390f35b6101db60048036038101906101d69190614532565b610508565b005b6101f760048036038101906101f29190614639565b6105e6565b005b610213600480360381019061020e91906147bf565b610659565b6040516102209190614400565b60405180910390f35b61023161066e565b60405161023e919061489d565b60405180910390f35b610261600480360381019061025c91906144df565b610674565b005b61027d600480360381019061027891906148b8565b6106df565b005b610299600480360381019061029491906144df565b61074c565b005b6102b560048036038101906102b0919061491f565b6107b7565b6040516102c29190614400565b60405180910390f35b60007f4e2312e0000000000000000000000000000000000000000000000000000000007bffffffffffffffffffffffffffffffffffffffffffffffffffffffff1916827bffffffffffffffffffffffffffffffffffffffffffffffffffffffff1916148061033e575061033d826107cc565b5b9050919050565b600063150b7a0260e01b9050949350505050565b600160009054906101000a900473ffffffffffffffffffffffffffffffffffffffff1673ffffffffffffffffffffffffffffffffffffffff163373ffffffffffffffffffffffffffffffffffffffff16146103e9576040517f08c379a00000000000000000000000000000000000000000000000000000000081526004016103e090614a13565b60405180910390fd5b80600460006101000a81548160ff02191690831515021790555050565b600160009054906101000a900473ffffffffffffffffffffffffffffffffffffffff1673ffffffffffffffffffffffffffffffffffffffff163373ffffffffffffffffffffffffffffffffffffffff1614610496576040517f08c379a000000000000000000000000000000000000000000000000000000000815260040161048d90614a13565b60405180910390fd5b80600260006101000a81548173ffffffffffffffffffffffffffffffffffffffff021916908373ffffffffffffffffffffffffffffffffffffffff16021790555050565b6104f06108366104eb858585610f95565b61105a565b505050565b600460009054906101000a900460ff1681565b600160009054906101000a900473ffffffffffffffffffffffffffffffffffffffff1673ffffffffffffffffffffffffffffffffffffffff163373ffffffffffffffffffffffffffffffffffffffff1614610598576040517f08c379a000000000000000000000000000000000000000000000000000000000815260040161058f90614a13565b60405180910390fd5b61271081106105dc576040517f08c379a00000000000000000000000000000000000000000000000000000000081526004016105d390614a7f565b60405180910390fd5b8060058190555050565b600460009054906101000a900460ff1615610636576040517f08c379a000000000000000000000000000000000000000000000000000000000815260040161062d90614aeb565b60405180910390fd5b61065061106b61064b898989898989896115d1565b61105a565b50505050505050565b600063bc197c8160e01b905095945050505050565b60055481565b600460009054906101000a900460ff16156106c4576040517f08c379a00000000000000000000000000000000000000000000000000000000081526004016106bb90614aeb565b60405180910390fd5b6106da6116826106d5858585610f95565b61105a565b505050565b600460009054906101000a900460ff161561072f576040517f08c379a000000000000000000000000000000000000000000000000000000000815260040161072690614aeb565b60405180910390fd5b610746611a4a6107418686868661231a565b61105a565b50505050565b600460009054906101000a900460ff161561079c576040517f08c379a000000000000000000000000000000000000000000000000000000000815260040161079390614aeb565b60405180910390fd5b6107b26123df6107ad858585610f95565b61105a565b505050565b600063f23a6e6160e01b905095945050505050565b60007f01ffc9a7000000000000000000000000000000000000000000000000000000007bffffffffffffffffffffffffffffffffffffffffffffffffffffffff1916827bffffffffffffffffffffffffffffffffffffffffffffffffffffffff1916149050919050565b600060066000836000015184602001518560c0015160405160200161085d93929190614b74565b6040516020818303038152906040528051906020012081526020019081526020016000209050610a66816000016040518060c00160405290816000820160009054906101000a900473ffffffffffffffffffffffffffffffffffffffff1673ffffffffffffffffffffffffffffffffffffffff1673ffffffffffffffffffffffffffffffffffffffff1681526020016000820160149054906101000a900460ff1660ff1660ff1681526020016000820160159054906101000a900460e01b7bffffffffffffffffffffffffffffffffffffffffffffffffffffffff19167bffffffffffffffffffffffffffffffffffffffffffffffffffffffff191681526020016000820160199054906101000a900460e01b7bffffffffffffffffffffffffffffffffffffffffffffffffffffffff19167bffffffffffffffffffffffffffffffffffffffffffffffffffffffff1916815260200160008201601d9054906101000a900460ff1660ff1660ff1681526020016001820180546109df90614be0565b80601f0160208091040260200160405190810160405280929190818152602001828054610a0b90614be0565b8015610a585780601f10610a2d57610100808354040283529160200191610a58565b820191906000526020600020905b815481529060010190602001808311610a3b57829003601f168201915b50505050508152505061298c565b610b16816002016040518060600160405290816000820160009054906101000a900473ffffffffffffffffffffffffffffffffffffffff1673ffffffffffffffffffffffffffffffffffffffff1673ffffffffffffffffffffffffffffffffffffffff1681526020016000820160149054906101000a900460ff1660ff1660ff1681526020016000820160159054906101000a900463ffffffff1663ffffffff1663ffffffff1681525050612abb565b610bc7816002016040518060600160405290816000820160009054906101000a900473ffffffffffffffffffffffffffffffffffffffff1673ffffffffffffffffffffffffffffffffffffffff1673ffffffffffffffffffffffffffffffffffffffff1681526020016000820160149054906101000a900460ff1660ff1660ff1681526020016000820160159054906101000a900463ffffffff1663ffffffff1663ffffffff168152505042612b64565b610e6881604051806040016040529081600082016040518060c00160405290816000820160009054906101000a900473ffffffffffffffffffffffffffffffffffffffff1673ffffffffffffffffffffffffffffffffffffffff1673ffffffffffffffffffffffffffffffffffffffff1681526020016000820160149054906101000a900460ff1660ff1660ff1681526020016000820160159054906101000a900460e01b7bffffffffffffffffffffffffffffffffffffffffffffffffffffffff19167bffffffffffffffffffffffffffffffffffffffffffffffffffffffff191681526020016000820160199054906101000a900460e01b7bffffffffffffffffffffffffffffffffffffffffffffffffffffffff19167bffffffffffffffffffffffffffffffffffffffffffffffffffffffff1916815260200160008201601d9054906101000a900460ff1660ff1660ff168152602001600182018054610d3090614be0565b80601f0160208091040260200160405190810160405280929190818152602001828054610d5c90614be0565b8015610da95780601f10610d7e57610100808354040283529160200191610da9565b820191906000526020600020905b815481529060010190602001808311610d8c57829003601f168201915b5050505050815250508152602001600282016040518060600160405290816000820160009054906101000a900473ffffffffffffffffffffffffffffffffffffffff1673ffffffffffffffffffffffffffffffffffffffff1673ffffffffffffffffffffffffffffffffffffffff1681526020016000820160149054906101000a900460ff1660ff1660ff1681526020016000820160159054906101000a900463ffffffff1663ffffffff1663ffffffff168152505081525050612bb1565b8160c001517f8ac1440f996b8b13e31275705c447bd09a92005cf2ec131a8183afedc636f5a242604051610e9c9190614c31565b60405180910390a280600001600080820160006101000a81549073ffffffffffffffffffffffffffffffffffffffff02191690556000820160146101000a81549060ff02191690556000820160156101000a81549063ffffffff02191690556000820160196101000a81549063ffffffff021916905560008201601d6101000a81549060ff0219169055600182016000610f369190613f3c565b505080600201600080820160006101000a81549073ffffffffffffffffffffffffffffffffffffffff02191690556000820160146101000a81549060ff02191690556000820160156101000a81549063ffffffff021916905550505050565b610f9d613f7c565b6040518061012001604052808573ffffffffffffffffffffffffffffffffffffffff16815260200184815260200160008152602001600060ff168152602001600060e01b7bffffffffffffffffffffffffffffffffffffffffffffffffffffffff19168152602001600060e01b7bffffffffffffffffffffffffffffffffffffffffffffffffffffffff19168152602001838152602001600060ff1681526020016040518060200160405280600081525081525090509392505050565b611067818363ffffffff16565b5050565b61107481612e76565b6000600660008360000151846020015160035460405160200161109993929190614b74565b60405160208183030381529060405280519060200120815260200190815260200160002090506112a2816000016040518060c00160405290816000820160009054906101000a900473ffffffffffffffffffffffffffffffffffffffff1673ffffffffffffffffffffffffffffffffffffffff1673ffffffffffffffffffffffffffffffffffffffff1681526020016000820160149054906101000a900460ff1660ff1660ff1681526020016000820160159054906101000a900460e01b7bffffffffffffffffffffffffffffffffffffffffffffffffffffffff19167bffffffffffffffffffffffffffffffffffffffffffffffffffffffff191681526020016000820160199054906101000a900460e01b7bffffffffffffffffffffffffffffffffffffffffffffffffffffffff19167bffffffffffffffffffffffffffffffffffffffffffffffffffffffff1916815260200160008201601d9054906101000a900460ff1660ff1660ff16815260200160018201805461121b90614be0565b80601f016020809104026020016040519081016040528092919081815260200182805461124790614be0565b80156112945780601f1061126957610100808354040283529160200191611294565b820191906000526020600020905b81548152906001019060200180831161127757829003601f168201915b505050505081525050613041565b611352816002016040518060600160405290816000820160009054906101000a900473ffffffffffffffffffffffffffffffffffffffff1673ffffffffffffffffffffffffffffffffffffffff1673ffffffffffffffffffffffffffffffffffffffff1681526020016000820160149054906101000a900460ff1660ff1660ff1681526020016000820160159054906101000a900463ffffffff1663ffffffff1663ffffffff168152505061316d565b60006113618360000151613214565b90506040518060c001604052803373ffffffffffffffffffffffffffffffffffffffff168152602001846060015160ff16815260200184608001517bffffffffffffffffffffffffffffffffffffffffffffffffffffffff191681526020018460a001517bffffffffffffffffffffffffffffffffffffffffffffffffffffffff19168152602001826113f85784604001516113fb565b60015b60ff1681526020018461010001518152508260000160008201518160000160006101000a81548173ffffffffffffffffffffffffffffffffffffffff021916908373ffffffffffffffffffffffffffffffffffffffff16021790555060208201518160000160146101000a81548160ff021916908360ff16021790555060408201518160000160156101000a81548163ffffffff021916908360e01c021790555060608201518160000160196101000a81548163ffffffff021916908360e01c0217905550608082015181600001601d6101000a81548160ff021916908360ff16021790555060a08201518160010190805190602001906114fd929190614022565b509050503373ffffffffffffffffffffffffffffffffffffffff168360200151846000015173ffffffffffffffffffffffffffffffffffffffff167f5ec2453262878ccb995d9d2cd153c01220c545a94eedfbf50017804aa990e1d58461156857866040015161156b565b60015b600354886060015189608001518a60a00151898c61010001516040516115979796959493929190614cd2565b60405180910390a4600360008154809291906115b290614d77565b91905055506115cc833330866020015187604001516132c6565b505050565b6115d9613f7c565b6040518061012001604052808973ffffffffffffffffffffffffffffffffffffffff1681526020018881526020018781526020018660ff168152602001857bffffffffffffffffffffffffffffffffffffffffffffffffffffffff19168152602001847bffffffffffffffffffffffffffffffffffffffffffffffffffffffff1916815260200160008152602001600060ff168152602001838152509050979650505050505050565b600060066000836000015184602001518560c001516040516020016116a993929190614b74565b60405160208183030381529060405280519060200120815260200190815260200160002090506118b2816000016040518060c00160405290816000820160009054906101000a900473ffffffffffffffffffffffffffffffffffffffff1673ffffffffffffffffffffffffffffffffffffffff1673ffffffffffffffffffffffffffffffffffffffff1681526020016000820160149054906101000a900460ff1660ff1660ff1681526020016000820160159054906101000a900460e01b7bffffffffffffffffffffffffffffffffffffffffffffffffffffffff19167bffffffffffffffffffffffffffffffffffffffffffffffffffffffff191681526020016000820160199054906101000a900460e01b7bffffffffffffffffffffffffffffffffffffffffffffffffffffffff19167bffffffffffffffffffffffffffffffffffffffffffffffffffffffff1916815260200160008201601d9054906101000a900460ff1660ff1660ff16815260200160018201805461182b90614be0565b80601f016020809104026020016040519081016040528092919081815260200182805461185790614be0565b80156118a45780601f10611879576101008083540402835291602001916118a4565b820191906000526020600020905b81548152906001019060200180831161188757829003601f168201915b50505050508152505061298c565b611964816002016040518060600160405290816000820160009054906101000a900473ffffffffffffffffffffffffffffffffffffffff1673ffffffffffffffffffffffffffffffffffffffff1673ffffffffffffffffffffffffffffffffffffffff1681526020016000820160149054906101000a900460ff1660ff1660ff1681526020016000820160159054906101000a900463ffffffff1663ffffffff1663ffffffff16815250503342613423565b60008160020160000160159054906101000a900463ffffffff1663ffffffff164261198f9190614dc0565b905061199b82826134e4565b8260c001517f289da9cb3ecd362ad5ae230d4daa346e68abbd8972cd9c01df54b7b1b97ab15b426040516119cf9190614c31565b60405180910390a281600201600080820160006101000a81549073ffffffffffffffffffffffffffffffffffffffff02191690556000820160146101000a81549060ff02191690556000820160156101000a81549063ffffffff02191690555050611a45833330866020015187604001516132c6565b505050565b600060066000836000015184602001518560c00151604051602001611a7193929190614b74565b6040516020818303038152906040528051906020012081526020019081526020016000209050611c7a816000016040518060c00160405290816000820160009054906101000a900473ffffffffffffffffffffffffffffffffffffffff1673ffffffffffffffffffffffffffffffffffffffff1673ffffffffffffffffffffffffffffffffffffffff1681526020016000820160149054906101000a900460ff1660ff1660ff1681526020016000820160159054906101000a900460e01b7bffffffffffffffffffffffffffffffffffffffffffffffffffffffff19167bffffffffffffffffffffffffffffffffffffffffffffffffffffffff191681526020016000820160199054906101000a900460e01b7bffffffffffffffffffffffffffffffffffffffffffffffffffffffff19167bffffffffffffffffffffffffffffffffffffffffffffffffffffffff1916815260200160008201601d9054906101000a900460ff1660ff1660ff168152602001600182018054611bf390614be0565b80601f0160208091040260200160405190810160405280929190818152602001828054611c1f90614be0565b8015611c6c5780601f10611c4157610100808354040283529160200191611c6c565b820191906000526020600020905b815481529060010190602001808311611c4f57829003601f168201915b50505050508152505061298c565b611d2a816002016040518060600160405290816000820160009054906101000a900473ffffffffffffffffffffffffffffffffffffffff1673ffffffffffffffffffffffffffffffffffffffff1673ffffffffffffffffffffffffffffffffffffffff1681526020016000820160149054906101000a900460ff1660ff1660ff1681526020016000820160159054906101000a900463ffffffff1663ffffffff1663ffffffff168152505061316d565b611f0f816000016040518060c00160405290816000820160009054906101000a900473ffffffffffffffffffffffffffffffffffffffff1673ffffffffffffffffffffffffffffffffffffffff1673ffffffffffffffffffffffffffffffffffffffff1681526020016000820160149054906101000a900460ff1660ff1660ff1681526020016000820160159054906101000a900460e01b7bffffffffffffffffffffffffffffffffffffffffffffffffffffffff19167bffffffffffffffffffffffffffffffffffffffffffffffffffffffff191681526020016000820160199054906101000a900460e01b7bffffffffffffffffffffffffffffffffffffffffffffffffffffffff19167bffffffffffffffffffffffffffffffffffffffffffffffffffffffff1916815260200160008201601d9054906101000a900460ff1660ff1660ff168152602001600182018054611e8690614be0565b80601f0160208091040260200160405190810160405280929190818152602001828054611eb290614be0565b8015611eff5780601f10611ed457610100808354040283529160200191611eff565b820191906000526020600020905b815481529060010190602001808311611ee257829003601f168201915b5050505050815250508333613919565b60008060009054906101000a900473ffffffffffffffffffffffffffffffffffffffff1673ffffffffffffffffffffffffffffffffffffffff1663135e4acd836000016001016040518263ffffffff1660e01b8152600401611f719190614e89565b60206040518083038186803b158015611f8957600080fd5b505afa158015611f9d573d6000803e3d6000fd5b505050506040513d601f19601f82011682018060405250810190611fc19190614ec0565b9050611fcc81613a79565b60008173ffffffffffffffffffffffffffffffffffffffff1663313ce5676040518163ffffffff1660e01b815260040160206040518083038186803b15801561201457600080fd5b505afa158015612028573d6000803e3d6000fd5b505050506040513d601f19601f8201168201806040525081019061204c9190614f02565b60ff169050600081600a6120609190615062565b905060006120828560000160000160159054906101000a900460e01b83613aec565b8660e0015160ff1661209491906150ad565b905060006120b68660000160000160199054906101000a900460e01b84613aec565b86600001600001601d9054906101000a900460ff1660ff166120d891906150ad565b90506000821161211d576040517f08c379a000000000000000000000000000000000000000000000000000000000815260040161211490615153565b60405180910390fd5b60008111612160576040517f08c379a0000000000000000000000000000000000000000000000000000000008152600401612157906151bf565b60405180910390fd5b8473ffffffffffffffffffffffffffffffffffffffff166323b872dd3330848661218a91906151df565b6040518463ffffffff1660e01b81526004016121a893929190615244565b602060405180830381600087803b1580156121c257600080fd5b505af11580156121d6573d6000803e3d6000fd5b505050506040513d601f19601f820116820180604052508101906121fa9190615290565b50505050338360020160000160006101000a81548173ffffffffffffffffffffffffffffffffffffffff021916908373ffffffffffffffffffffffffffffffffffffffff1602179055508360e001518360020160000160146101000a81548160ff021916908360ff160217905550428360020160000160156101000a81548163ffffffff021916908363ffffffff1602179055503373ffffffffffffffffffffffffffffffffffffffff167f3140d73adcc923e4a0de3b1522aeec546a872bcdc06a3e25fe1209df30b954ec8560c001518660e001518660020160000160159054906101000a900463ffffffff166040516122f7939291906152bd565b60405180910390a2612314843033876020015188604001516132c6565b50505050565b612322613f7c565b6040518061012001604052808673ffffffffffffffffffffffffffffffffffffffff16815260200185815260200160008152602001600060ff168152602001600060e01b7bffffffffffffffffffffffffffffffffffffffffffffffffffffffff19168152602001600060e01b7bffffffffffffffffffffffffffffffffffffffffffffffffffffffff191681526020018481526020018360ff168152602001604051806020016040528060008152508152509050949350505050565b600060066000836000015184602001518560c0015160405160200161240693929190614b74565b604051602081830303815290604052805190602001208152602001908152602001600020905061260f816000016040518060c00160405290816000820160009054906101000a900473ffffffffffffffffffffffffffffffffffffffff1673ffffffffffffffffffffffffffffffffffffffff1673ffffffffffffffffffffffffffffffffffffffff1681526020016000820160149054906101000a900460ff1660ff1660ff1681526020016000820160159054906101000a900460e01b7bffffffffffffffffffffffffffffffffffffffffffffffffffffffff19167bffffffffffffffffffffffffffffffffffffffffffffffffffffffff191681526020016000820160199054906101000a900460e01b7bffffffffffffffffffffffffffffffffffffffffffffffffffffffff19167bffffffffffffffffffffffffffffffffffffffffffffffffffffffff1916815260200160008201601d9054906101000a900460ff1660ff1660ff16815260200160018201805461258890614be0565b80601f01602080910402602001604051908101604052809291908181526020018280546125b490614be0565b80156126015780601f106125d657610100808354040283529160200191612601565b820191906000526020600020905b8154815290600101906020018083116125e457829003601f168201915b50505050508152505061298c565b6126bf816002016040518060600160405290816000820160009054906101000a900473ffffffffffffffffffffffffffffffffffffffff1673ffffffffffffffffffffffffffffffffffffffff1673ffffffffffffffffffffffffffffffffffffffff1681526020016000820160149054906101000a900460ff1660ff1660ff1681526020016000820160159054906101000a900463ffffffff1663ffffffff1663ffffffff168152505061316d565b6128a3816000016040518060c00160405290816000820160009054906101000a900473ffffffffffffffffffffffffffffffffffffffff1673ffffffffffffffffffffffffffffffffffffffff1673ffffffffffffffffffffffffffffffffffffffff1681526020016000820160149054906101000a900460ff1660ff1660ff1681526020016000820160159054906101000a900460e01b7bffffffffffffffffffffffffffffffffffffffffffffffffffffffff19167bffffffffffffffffffffffffffffffffffffffffffffffffffffffff191681526020016000820160199054906101000a900460e01b7bffffffffffffffffffffffffffffffffffffffffffffffffffffffff19167bffffffffffffffffffffffffffffffffffffffffffffffffffffffff1916815260200160008201601d9054906101000a900460ff1660ff1660ff16815260200160018201805461281b90614be0565b80601f016020809104026020016040519081016040528092919081815260200182805461284790614be0565b80156128945780601f1061286957610100808354040283529160200191612894565b820191906000526020600020905b81548152906001019060200180831161287757829003601f168201915b50505050508152505033613bac565b8160c001517f61bcecd87c002ae006d9d8c760291b4f3646fa6109590b4b3ea93084aae4bb6a426040516128d79190614c31565b60405180910390a280600001600080820160006101000a81549073ffffffffffffffffffffffffffffffffffffffff02191690556000820160146101000a81549060ff02191690556000820160156101000a81549063ffffffff02191690556000820160196101000a81549063ffffffff021916905560008201601d6101000a81549060ff02191690556001820160006129719190613f3c565b5050612988823033856020015186604001516132c6565b5050565b6129998160000151613a79565b6000816020015160ff1614156129e4576040517f08c379a00000000000000000000000000000000000000000000000000000000081526004016129db90615340565b60405180910390fd5b600060e01b81604001517bffffffffffffffffffffffffffffffffffffffffffffffffffffffff19161415612a4e576040517f08c379a0000000000000000000000000000000000000000000000000000000008152600401612a4590615153565b60405180910390fd5b600060e01b81606001517bffffffffffffffffffffffffffffffffffffffffffffffffffffffff19161415612ab8576040517f08c379a0000000000000000000000000000000000000000000000000000000008152600401612aaf906151bf565b60405180910390fd5b50565b612ac88160000151613a79565b6000816020015160ff161415612b13576040517f08c379a0000000000000000000000000000000000000000000000000000000008152600401612b0a906153ac565b60405180910390fd5b6000816040015163ffffffff161415612b61576040517f08c379a0000000000000000000000000000000000000000000000000000000008152600401612b5890615418565b60405180910390fd5b50565b612b6e8282613c22565b612bad576040517f08c379a0000000000000000000000000000000000000000000000000000000008152600401612ba490615484565b60405180910390fd5b5050565b60008060009054906101000a900473ffffffffffffffffffffffffffffffffffffffff1673ffffffffffffffffffffffffffffffffffffffff1663135e4acd836000015160a001516040518263ffffffff1660e01b8152600401612c1591906154a4565b60206040518083038186803b158015612c2d57600080fd5b505afa158015612c41573d6000803e3d6000fd5b505050506040513d601f19601f82011682018060405250810190612c659190614ec0565b9050612c7081613a79565b600081905060008173ffffffffffffffffffffffffffffffffffffffff1663313ce5676040518163ffffffff1660e01b815260040160206040518083038186803b158015612cbd57600080fd5b505afa158015612cd1573d6000803e3d6000fd5b505050506040513d601f19601f82011682018060405250810190612cf59190614f02565b60ff169050600081600a612d099190615062565b90506000612d1f86600001516060015183613aec565b86600001516080015160ff16612d3591906150ad565b90506000612d4b87600001516040015184613aec565b9050600087602001516020015160ff1682612d6691906150ad565b90506000612d748289613ca5565b905060008483612d8491906151df565b905060008311612dc9576040517f08c379a0000000000000000000000000000000000000000000000000000000008152600401612dc090615538565b60405180910390fd5b8773ffffffffffffffffffffffffffffffffffffffff1663a9059cbb8b60000151600001518484612dfa9190614dc0565b6040518363ffffffff1660e01b8152600401612e179291906155b7565b602060405180830381600087803b158015612e3157600080fd5b505af1158015612e45573d6000803e3d6000fd5b505050506040513d601f19601f82011682018060405250810190612e699190615290565b5050505050505050505050565b6000816040015111612ebd576040517f08c379a0000000000000000000000000000000000000000000000000000000008152600401612eb49061562c565b60405180910390fd5b60ff801681604001511115612f07576040517f08c379a0000000000000000000000000000000000000000000000000000000008152600401612efe90615698565b60405180910390fd5b6000816060015160ff1611612f51576040517f08c379a0000000000000000000000000000000000000000000000000000000008152600401612f48906153ac565b60405180910390fd5b60ff8016816060015160ff161115612f9e576040517f08c379a0000000000000000000000000000000000000000000000000000000008152600401612f9590615698565b60405180910390fd5b6000816080015160e01c63ffffffff1611612fee576040517f08c379a0000000000000000000000000000000000000000000000000000000008152600401612fe590615153565b60405180910390fd5b60008160a0015160e01c63ffffffff161161303e576040517f08c379a0000000000000000000000000000000000000000000000000000000008152600401613035906151bf565b60405180910390fd5b50565b61304e8160000151613d83565b6000816020015160ff1614613098576040517f08c379a000000000000000000000000000000000000000000000000000000000815260040161308f90615704565b60405180910390fd5b600060e01b81604001517bffffffffffffffffffffffffffffffffffffffffffffffffffffffff191614613101576040517f08c379a00000000000000000000000000000000000000000000000000000000081526004016130f890615770565b60405180910390fd5b600060e01b81606001517bffffffffffffffffffffffffffffffffffffffffffffffffffffffff19161461316a576040517f08c379a0000000000000000000000000000000000000000000000000000000008152600401613161906157dc565b60405180910390fd5b50565b61317a8160000151613d83565b6000816020015160ff16146131c4576040517f08c379a00000000000000000000000000000000000000000000000000000000081526004016131bb90615704565b60405180910390fd5b6000816040015163ffffffff1614613211576040517f08c379a000000000000000000000000000000000000000000000000000000000815260040161320890615848565b60405180910390fd5b50565b60008173ffffffffffffffffffffffffffffffffffffffff166301ffc9a77f80ac58cd000000000000000000000000000000000000000000000000000000006040518263ffffffff1660e01b815260040161326f9190614400565b60206040518083038186803b15801561328757600080fd5b505afa15801561329b573d6000803e3d6000fd5b505050506040513d601f19601f820116820180604052508101906132bf9190615290565b9050919050565b6132d38560000151613214565b1561335457846000015173ffffffffffffffffffffffffffffffffffffffff166323b872dd858588602001516040518463ffffffff1660e01b815260040161331d93929190615244565b600060405180830381600087803b15801561333757600080fd5b505af115801561334b573d6000803e3d6000fd5b5050505061341c565b6133618560000151613df5565b156133e057846000015173ffffffffffffffffffffffffffffffffffffffff1663f242432a858585856040518563ffffffff1660e01b81526004016133a9949392919061589f565b600060405180830381600087803b1580156133c357600080fd5b505af11580156133d7573d6000803e3d6000fd5b5050505061341b565b6040517f08c379a000000000000000000000000000000000000000000000000000000000815260040161341290615943565b60405180910390fd5b5b5050505050565b8173ffffffffffffffffffffffffffffffffffffffff16836000015173ffffffffffffffffffffffffffffffffffffffff1614613495576040517f08c379a000000000000000000000000000000000000000000000000000000000815260040161348c906159af565b60405180910390fd5b61349f8382613c22565b156134df576040517f08c379a00000000000000000000000000000000000000000000000000000000081526004016134d690615a1b565b60405180910390fd5b505050565b60008060009054906101000a900473ffffffffffffffffffffffffffffffffffffffff1673ffffffffffffffffffffffffffffffffffffffff1663135e4acd846000016001016040518263ffffffff1660e01b81526004016135469190614e89565b60206040518083038186803b15801561355e57600080fd5b505afa158015613572573d6000803e3d6000fd5b505050506040513d601f19601f820116820180604052508101906135969190614ec0565b90506135a181613a79565b60008173ffffffffffffffffffffffffffffffffffffffff1663313ce5676040518163ffffffff1660e01b815260040160206040518083038186803b1580156135e957600080fd5b505afa1580156135fd573d6000803e3d6000fd5b505050506040513d601f19601f820116820180604052508101906136219190614f02565b60ff169050600081600a6136359190615062565b905060006136578660000160000160199054906101000a900460e01b83613aec565b86600001600001601d9054906101000a900460ff1660ff1661367991906150ad565b9050600061369b8760000160000160159054906101000a900460e01b84613aec565b905060008760020160000160149054906101000a900460ff1660ff16826136c291906150ad565b905060006201518083896136d691906150ad565b6136e09190615a6a565b905060008211613725576040517f08c379a000000000000000000000000000000000000000000000000000000000815260040161371c90615b0d565b60405180910390fd5b60008111613768576040517f08c379a000000000000000000000000000000000000000000000000000000000815260040161375f90615b79565b60405180910390fd5b600081836137769190614dc0565b90506000613784838a613ca5565b905080836137929190614dc0565b925085826137a091906151df565b91508873ffffffffffffffffffffffffffffffffffffffff1663a9059cbb8c60000160000160009054906101000a900473ffffffffffffffffffffffffffffffffffffffff16856040518363ffffffff1660e01b81526004016138049291906155b7565b602060405180830381600087803b15801561381e57600080fd5b505af1158015613832573d6000803e3d6000fd5b505050506040513d601f19601f820116820180604052508101906138569190615290565b508873ffffffffffffffffffffffffffffffffffffffff1663a9059cbb8c60020160000160009054906101000a900473ffffffffffffffffffffffffffffffffffffffff16846040518363ffffffff1660e01b81526004016138b99291906155b7565b602060405180830381600087803b1580156138d357600080fd5b505af11580156138e7573d6000803e3d6000fd5b505050506040513d601f19601f8201168201806040525081019061390b9190615290565b505050505050505050505050565b826000015173ffffffffffffffffffffffffffffffffffffffff168173ffffffffffffffffffffffffffffffffffffffff16141561398c576040517f08c379a000000000000000000000000000000000000000000000000000000000815260040161398390615be5565b60405180910390fd5b60ff80168260e0015160ff1611156139d9576040517f08c379a00000000000000000000000000000000000000000000000000000000081526004016139d090615698565b60405180910390fd5b60008260e0015160ff1611613a23576040517f08c379a0000000000000000000000000000000000000000000000000000000008152600401613a1a906153ac565b60405180910390fd5b826020015160ff168260e0015160ff161115613a74576040517f08c379a0000000000000000000000000000000000000000000000000000000008152600401613a6b90615c77565b60405180910390fd5b505050565b600073ffffffffffffffffffffffffffffffffffffffff168173ffffffffffffffffffffffffffffffffffffffff161415613ae9576040517f08c379a0000000000000000000000000000000000000000000000000000000008152600401613ae090615ce3565b60405180910390fd5b50565b6000613af88383613ea7565b60008360f01c905060006010857bffffffffffffffffffffffffffffffffffffffffffffffffffffffff1916901b60f01c9050600061271085613b3b9190615a6a565b905061270f8361ffff161115613b515761270f92505b61270f8261ffff161115613b655761270f91505b6000858461ffff16613b7791906150ad565b90506000828461ffff16613b8b91906150ad565b905060008183613b9b91906151df565b905080965050505050505092915050565b8073ffffffffffffffffffffffffffffffffffffffff16826000015173ffffffffffffffffffffffffffffffffffffffff1614613c1e576040517f08c379a0000000000000000000000000000000000000000000000000000000008152600401613c1590615d4f565b60405180910390fd5b5050565b6000826040015163ffffffff168211613c70576040517f08c379a0000000000000000000000000000000000000000000000000000000008152600401613c6790615dbb565b60405180910390fd5b62015180836020015160ff16613c8691906150ad565b836040015163ffffffff1683613c9c9190614dc0565b11905092915050565b600060055483613cb591906150ad565b905061271081613cc59190615a6a565b905060008290508073ffffffffffffffffffffffffffffffffffffffff1663a9059cbb600260009054906101000a900473ffffffffffffffffffffffffffffffffffffffff16846040518363ffffffff1660e01b8152600401613d299291906155b7565b602060405180830381600087803b158015613d4357600080fd5b505af1158015613d57573d6000803e3d6000fd5b505050506040513d601f19601f82011682018060405250810190613d7b9190615290565b505092915050565b600073ffffffffffffffffffffffffffffffffffffffff168173ffffffffffffffffffffffffffffffffffffffff1614613df2576040517f08c379a0000000000000000000000000000000000000000000000000000000008152600401613de990615e27565b60405180910390fd5b50565b60008173ffffffffffffffffffffffffffffffffffffffff166301ffc9a77fd9b67a26000000000000000000000000000000000000000000000000000000006040518263ffffffff1660e01b8152600401613e509190614400565b60206040518083038186803b158015613e6857600080fd5b505afa158015613e7c573d6000803e3d6000fd5b505050506040513d601f19601f82011682018060405250810190613ea09190615290565b9050919050565b60008260e01c63ffffffff1611613ef3576040517f08c379a0000000000000000000000000000000000000000000000000000000008152600401613eea90615e93565b60405180910390fd5b612710811015613f38576040517f08c379a0000000000000000000000000000000000000000000000000000000008152600401613f2f90615eff565b60405180910390fd5b5050565b508054613f4890614be0565b6000825580601f10613f5a5750613f79565b601f016020900490600052602060002090810190613f7891906140a8565b5b50565b604051806101200160405280600073ffffffffffffffffffffffffffffffffffffffff1681526020016000815260200160008152602001600060ff16815260200160007bffffffffffffffffffffffffffffffffffffffffffffffffffffffff1916815260200160007bffffffffffffffffffffffffffffffffffffffffffffffffffffffff1916815260200160008152602001600060ff168152602001606081525090565b82805461402e90614be0565b90600052602060002090601f0160209004810192826140505760008555614097565b82601f1061406957805160ff1916838001178555614097565b82800160010185558215614097579182015b8281111561409657825182559160200191906001019061407b565b5b5090506140a491906140a8565b5090565b5b808211156140c15760008160009055506001016140a9565b5090565b6000604051905090565b600080fd5b600080fd5b60007fffffffff0000000000000000000000000000000000000000000000000000000082169050919050565b61410e816140d9565b811461411957600080fd5b50565b60008135905061412b81614105565b92915050565b600060208284031215614147576141466140cf565b5b60006141558482850161411c565b91505092915050565b60008115159050919050565b6141738161415e565b82525050565b600060208201905061418e600083018461416a565b92915050565b600073ffffffffffffffffffffffffffffffffffffffff82169050919050565b60006141bf82614194565b9050919050565b6141cf816141b4565b81146141da57600080fd5b50565b6000813590506141ec816141c6565b92915050565b6000819050919050565b614205816141f2565b811461421057600080fd5b50565b600081359050614222816141fc565b92915050565b600080fd5b600080fd5b6000601f19601f8301169050919050565b7f4e487b7100000000000000000000000000000000000000000000000000000000600052604160045260246000fd5b61427b82614232565b810181811067ffffffffffffffff8211171561429a57614299614243565b5b80604052505050565b60006142ad6140c5565b90506142b98282614272565b919050565b600067ffffffffffffffff8211156142d9576142d8614243565b5b6142e282614232565b9050602081019050919050565b82818337600083830152505050565b600061431161430c846142be565b6142a3565b90508281526020810184848401111561432d5761432c61422d565b5b6143388482856142ef565b509392505050565b600082601f83011261435557614354614228565b5b81356143658482602086016142fe565b91505092915050565b60008060008060808587031215614388576143876140cf565b5b6000614396878288016141dd565b94505060206143a7878288016141dd565b93505060406143b887828801614213565b925050606085013567ffffffffffffffff8111156143d9576143d86140d4565b5b6143e587828801614340565b91505092959194509250565b6143fa816140d9565b82525050565b600060208201905061441560008301846143f1565b92915050565b6144248161415e565b811461442f57600080fd5b50565b6000813590506144418161441b565b92915050565b60006020828403121561445d5761445c6140cf565b5b600061446b84828501614432565b91505092915050565b600061447f82614194565b9050919050565b61448f81614474565b811461449a57600080fd5b50565b6000813590506144ac81614486565b92915050565b6000602082840312156144c8576144c76140cf565b5b60006144d68482850161449d565b91505092915050565b6000806000606084860312156144f8576144f76140cf565b5b6000614506868287016141dd565b935050602061451786828701614213565b925050604061452886828701614213565b9150509250925092565b600060208284031215614548576145476140cf565b5b600061455684828501614213565b91505092915050565b600060ff82169050919050565b6145758161455f565b811461458057600080fd5b50565b6000813590506145928161456c565b92915050565b600067ffffffffffffffff8211156145b3576145b2614243565b5b6145bc82614232565b9050602081019050919050565b60006145dc6145d784614598565b6142a3565b9050828152602081018484840111156145f8576145f761422d565b5b6146038482856142ef565b509392505050565b600082601f8301126146205761461f614228565b5b81356146308482602086016145c9565b91505092915050565b600080600080600080600060e0888a031215614658576146576140cf565b5b60006146668a828b016141dd565b97505060206146778a828b01614213565b96505060406146888a828b01614213565b95505060606146998a828b01614583565b94505060806146aa8a828b0161411c565b93505060a06146bb8a828b0161411c565b92505060c088013567ffffffffffffffff8111156146dc576146db6140d4565b5b6146e88a828b0161460b565b91505092959891949750929550565b600067ffffffffffffffff82111561471257614711614243565b5b602082029050602081019050919050565b600080fd5b600061473b614736846146f7565b6142a3565b9050808382526020820190506020840283018581111561475e5761475d614723565b5b835b8181101561478757806147738882614213565b845260208401935050602081019050614760565b5050509392505050565b600082601f8301126147a6576147a5614228565b5b81356147b6848260208601614728565b91505092915050565b600080600080600060a086880312156147db576147da6140cf565b5b60006147e9888289016141dd565b95505060206147fa888289016141dd565b945050604086013567ffffffffffffffff81111561481b5761481a6140d4565b5b61482788828901614791565b935050606086013567ffffffffffffffff811115614848576148476140d4565b5b61485488828901614791565b925050608086013567ffffffffffffffff811115614875576148746140d4565b5b61488188828901614340565b9150509295509295909350565b614897816141f2565b82525050565b60006020820190506148b2600083018461488e565b92915050565b600080600080608085870312156148d2576148d16140cf565b5b60006148e0878288016141dd565b94505060206148f187828801614213565b935050604061490287828801614213565b925050606061491387828801614583565b91505092959194509250565b600080600080600060a0868803121561493b5761493a6140cf565b5b6000614949888289016141dd565b955050602061495a888289016141dd565b945050604061496b88828901614213565b935050606061497c88828901614213565b925050608086013567ffffffffffffffff81111561499d5761499c6140d4565b5b6149a988828901614340565b9150509295509295909350565b600082825260208201905092915050565b7f52654e46543a3a6e6f742061646d696e00000000000000000000000000000000600082015250565b60006149fd6010836149b6565b9150614a08826149c7565b602082019050919050565b60006020820190508181036000830152614a2c816149f0565b9050919050565b7f52654e46543a3a66656520657863656564732031303070637400000000000000600082015250565b6000614a696019836149b6565b9150614a7482614a33565b602082019050919050565b60006020820190508181036000830152614a9881614a5c565b9050919050565b7f52654e46543a3a70617573656400000000000000000000000000000000000000600082015250565b6000614ad5600d836149b6565b9150614ae082614a9f565b602082019050919050565b60006020820190508181036000830152614b0481614ac8565b9050919050565b60008160601b9050919050565b6000614b2382614b0b565b9050919050565b6000614b3582614b18565b9050919050565b614b4d614b48826141b4565b614b2a565b82525050565b6000819050919050565b614b6e614b69826141f2565b614b53565b82525050565b6000614b808286614b3c565b601482019150614b908285614b5d565b602082019150614ba08284614b5d565b602082019150819050949350505050565b7f4e487b7100000000000000000000000000000000000000000000000000000000600052602260045260246000fd5b60006002820490506001821680614bf857607f821691505b60208210811415614c0c57614c0b614bb1565b5b50919050565b600063ffffffff82169050919050565b614c2b81614c12565b82525050565b6000602082019050614c466000830184614c22565b92915050565b614c558161455f565b82525050565b600081519050919050565b60005b83811015614c84578082015181840152602081019050614c69565b83811115614c93576000848401525b50505050565b6000614ca482614c5b565b614cae81856149b6565b9350614cbe818560208601614c66565b614cc781614232565b840191505092915050565b600060e082019050614ce7600083018a614c4c565b614cf4602083018961488e565b614d016040830188614c4c565b614d0e60608301876143f1565b614d1b60808301866143f1565b614d2860a083018561416a565b81810360c0830152614d3a8184614c99565b905098975050505050505050565b7f4e487b7100000000000000000000000000000000000000000000000000000000600052601160045260246000fd5b6000614d82826141f2565b91507fffffffffffffffffffffffffffffffffffffffffffffffffffffffffffffffff821415614db557614db4614d48565b5b600182019050919050565b6000614dcb826141f2565b9150614dd6836141f2565b925082821015614de957614de8614d48565b5b828203905092915050565b60008190508160005260206000209050919050565b60008154614e1681614be0565b614e2081866149b6565b94506001821660008114614e3b5760018114614e4d57614e80565b60ff1983168652602086019350614e80565b614e5685614df4565b60005b83811015614e7857815481890152600182019150602081019050614e59565b808801955050505b50505092915050565b60006020820190508181036000830152614ea38184614e09565b905092915050565b600081519050614eba816141c6565b92915050565b600060208284031215614ed657614ed56140cf565b5b6000614ee484828501614eab565b91505092915050565b600081519050614efc8161456c565b92915050565b600060208284031215614f1857614f176140cf565b5b6000614f2684828501614eed565b91505092915050565b60008160011c9050919050565b6000808291508390505b6001851115614f8657808604811115614f6257614f61614d48565b5b6001851615614f715780820291505b8081029050614f7f85614f2f565b9450614f46565b94509492505050565b600082614f9f576001905061505b565b81614fad576000905061505b565b8160018114614fc35760028114614fcd57614ffc565b600191505061505b565b60ff841115614fdf57614fde614d48565b5b8360020a915084821115614ff657614ff5614d48565b5b5061505b565b5060208310610133831016604e8410600b84101617156150315782820a90508381111561502c5761502b614d48565b5b61505b565b61503e8484846001614f3c565b9250905081840481111561505557615054614d48565b5b81810290505b9392505050565b600061506d826141f2565b9150615078836141f2565b92506150a57fffffffffffffffffffffffffffffffffffffffffffffffffffffffffffffffff8484614f8f565b905092915050565b60006150b8826141f2565b91506150c3836141f2565b9250817fffffffffffffffffffffffffffffffffffffffffffffffffffffffffffffffff04831182151516156150fc576150fb614d48565b5b828202905092915050565b7f52654e46543a3a72656e74207072696365206973207a65726f00000000000000600082015250565b600061513d6019836149b6565b915061514882615107565b602082019050919050565b6000602082019050818103600083015261516c81615130565b9050919050565b7f52654e46543a3a6e6674207072696365206973207a65726f0000000000000000600082015250565b60006151a96018836149b6565b91506151b482615173565b602082019050919050565b600060208201905081810360008301526151d88161519c565b9050919050565b60006151ea826141f2565b91506151f5836141f2565b9250827fffffffffffffffffffffffffffffffffffffffffffffffffffffffffffffffff0382111561522a57615229614d48565b5b828201905092915050565b61523e816141b4565b82525050565b60006060820190506152596000830186615235565b6152666020830185615235565b615273604083018461488e565b949350505050565b60008151905061528a8161441b565b92915050565b6000602082840312156152a6576152a56140cf565b5b60006152b48482850161527b565b91505092915050565b60006060820190506152d2600083018661488e565b6152df6020830185614c4c565b6152ec6040830184614c22565b949350505050565b7f52654e46543a3a6475726174696f6e207a65726f000000000000000000000000600082015250565b600061532a6014836149b6565b9150615335826152f4565b602082019050919050565b600060208201905081810360008301526153598161531d565b9050919050565b7f52654e46543a3a6475726174696f6e206973207a65726f000000000000000000600082015250565b60006153966017836149b6565b91506153a182615360565b602082019050919050565b600060208201905081810360008301526153c581615389565b9050919050565b7f52654e46543a3a72656e746564206174206973207a65726f0000000000000000600082015250565b60006154026018836149b6565b915061540d826153cc565b602082019050919050565b60006020820190508181036000830152615431816153f5565b9050919050565b7f52654e46543a3a72657475726e2064617465206e6f7420706173736564000000600082015250565b600061546e601d836149b6565b915061547982615438565b602082019050919050565b6000602082019050818103600083015261549d81615461565b9050919050565b600060208201905081810360008301526154be8184614c99565b905092915050565b7f52654e46543a3a636f6c6c61746572616c20706c75732072656e74206973207a60008201527f65726f0000000000000000000000000000000000000000000000000000000000602082015250565b60006155226023836149b6565b915061552d826154c6565b604082019050919050565b6000602082019050818103600083015261555181615515565b9050919050565b6000819050919050565b600061557d61557861557384614194565b615558565b614194565b9050919050565b600061558f82615562565b9050919050565b60006155a182615584565b9050919050565b6155b181615596565b82525050565b60006040820190506155cc60008301856155a8565b6155d9602083018461488e565b9392505050565b7f52654e46543a3a6c656e6420616d6f756e74206973207a65726f000000000000600082015250565b6000615616601a836149b6565b9150615621826155e0565b602082019050919050565b6000602082019050818103600083015261564581615609565b9050919050565b7f52654e46543a3a6e6f742075696e743800000000000000000000000000000000600082015250565b60006156826010836149b6565b915061568d8261564c565b602082019050919050565b600060208201905081810360008301526156b181615675565b9050919050565b7f52654e46543a3a6475726174696f6e206e6f74207a65726f0000000000000000600082015250565b60006156ee6018836149b6565b91506156f9826156b8565b602082019050919050565b6000602082019050818103600083015261571d816156e1565b9050919050565b7f52654e46543a3a72656e74207072696365206e6f74207a65726f000000000000600082015250565b600061575a601a836149b6565b915061576582615724565b602082019050919050565b600060208201905081810360008301526157898161574d565b9050919050565b7f52654e46543a3a6e6674207072696365206e6f74207a65726f00000000000000600082015250565b60006157c66019836149b6565b91506157d182615790565b602082019050919050565b600060208201905081810360008301526157f5816157b9565b9050919050565b7f52654e46543a3a72656e746564206174206e6f74207a65726f00000000000000600082015250565b60006158326019836149b6565b915061583d826157fc565b602082019050919050565b6000602082019050818103600083015261586181615825565b9050919050565b600082825260208201905092915050565b50565b6000615889600083615868565b915061589482615879565b600082019050919050565b600060a0820190506158b46000830187615235565b6158c16020830186615235565b6158ce604083018561488e565b6158db606083018461488e565b81810360808301526158ec8161587c565b905095945050505050565b7f52654e46543a3a756e737570706f7274656420746f6b656e2074797065000000600082015250565b600061592d601d836149b6565b9150615938826158f7565b602082019050919050565b6000602082019050818103600083015261595c81615920565b9050919050565b7f52654e46543a3a6e6f742072656e746572000000000000000000000000000000600082015250565b60006159996011836149b6565b91506159a482615963565b602082019050919050565b600060208201905081810360008301526159c88161598c565b9050919050565b7f52654e46543a3a706173742072657475726e2064617465000000000000000000600082015250565b6000615a056017836149b6565b9150615a10826159cf565b602082019050919050565b60006020820190508181036000830152615a34816159f8565b9050919050565b7f4e487b7100000000000000000000000000000000000000000000000000000000600052601260045260246000fd5b6000615a75826141f2565b9150615a80836141f2565b925082615a9057615a8f615a3b565b5b828204905092915050565b7f52654e46543a3a746f74616c207061796d656e7420776f20636f6c6c6174657260008201527f616c206973207a65726f00000000000000000000000000000000000000000000602082015250565b6000615af7602a836149b6565b9150615b0282615a9b565b604082019050919050565b60006020820190508181036000830152615b2681615aea565b9050919050565b7f52654e46543a3a6c656e646572207061796d656e74206973207a65726f000000600082015250565b6000615b63601d836149b6565b9150615b6e82615b2d565b602082019050919050565b60006020820190508181036000830152615b9281615b56565b9050919050565b7f52654e46543a3a63616e742072656e74206f776e206e66740000000000000000600082015250565b6000615bcf6018836149b6565b9150615bda82615b99565b602082019050919050565b60006020820190508181036000830152615bfe81615bc2565b9050919050565b7f52654e46543a3a72656e74206475726174696f6e206578636565647320616c6c60008201527f6f776564206d6178000000000000000000000000000000000000000000000000602082015250565b6000615c616028836149b6565b9150615c6c82615c05565b604082019050919050565b60006020820190508181036000830152615c9081615c54565b9050919050565b7f52654e46543a3a7a65726f206164647265737300000000000000000000000000600082015250565b6000615ccd6013836149b6565b9150615cd882615c97565b602082019050919050565b60006020820190508181036000830152615cfc81615cc0565b9050919050565b7f52654e46543a3a6e6f74206c656e646572000000000000000000000000000000600082015250565b6000615d396011836149b6565b9150615d4482615d03565b602082019050919050565b60006020820190508181036000830152615d6881615d2c565b9050919050565b7f52654e46543a3a6e6f77206265666f72652072656e7465640000000000000000600082015250565b6000615da56018836149b6565b9150615db082615d6f565b602082019050919050565b60006020820190508181036000830152615dd481615d98565b9050919050565b7f52654e46543a3a6e6f742061207a65726f206164647265737300000000000000600082015250565b6000615e116019836149b6565b9150615e1c82615ddb565b602082019050919050565b60006020820190508181036000830152615e4081615e04565b9050919050565b7f52654e46543a3a696e76616c6964207072696365000000000000000000000000600082015250565b6000615e7d6014836149b6565b9150615e8882615e47565b602082019050919050565b60006020820190508181036000830152615eac81615e70565b9050919050565b7f52654e46543a3a696e76616c6964207363616c65000000000000000000000000600082015250565b6000615ee96014836149b6565b9150615ef482615eb3565b602082019050919050565b60006020820190508181036000830152615f1881615edc565b905091905056fea2646970667358221220f50fe4b19fef12a64589c4bdffe7cda53fbb4f6b283418bc73a94aefc7c1edb264736f6c63430008090033",
  "linkReferences": {},
  "deployedLinkReferences": {}
}